:100000000C942A010C945A010C9464010C9447013D
:100010000C9447010C94650B0C9447010C94470118
:100020000C9447010C9447010C9447010C9449012E
:100030000C9447010C94FA0A0C94210B0C94F00ACE
:100040000C946E010C9447010C94D8030C94470156
:100050000C94470100C1814001C0804101C0804132
:1000600000C1814001C0804100C1814000C1814088
:1000700001C0804101C0804100C1814000C1814078
:1000800001C0804100C1814001C0804101C0804168
:1000900000C1814001C0804100C1814000C1814058
:1000A00001C0804100C1814001C0804101C0804148
:1000B00000C1814000C1814001C0804101C0804138
:1000C00000C1814001C0804100C1814000C1814028
:1000D00001C0804101C0804100C1814000C1814018
:1000E00001C0804100C1814001C0804101C0804108
:1000F00000C1814000C1814001C0804101C08041F8
:1001000000C1814001C0804100C1814000C18140E7
:1001100001C0804100C1814001C0804101C08041D7
:1001200000C1814001C0804100C1814000C18140C7
:1001300001C0804101C0804100C1814000C18140B7
:1001400001C0804100C1814001C0804101C08041A7
:1001500000C1814000C0C101C30302C2C60607C777
:1001600005C5C404CC0C0DCD0FCFCE0E0ACACB0BE7
:10017000C90908C8D81819D91BDBDA1A1EDEDF1F17
:10018000DD1D1CDC14D4D515D71716D6D21213D307
:1001900011D1D010F03031F133F3F23236F6F737B7
:1001A000F53534F43CFCFD3DFF3F3EFEFA3A3BFBA7
:1001B00039F9F83828E8E929EB2B2AEAEE2E2FEF57
:1001C0002DEDEC2CE42425E527E7E62622E2E323C7
:1001D000E12120E0A06061A163A3A26266A6A767F7
:1001E000A56564A46CACAD6DAF6F6EAEAA6A6BAB67
:1001F00069A9A86878B8B979BB7B7ABABE7E7FBF97
:100200007DBDBC7CB47475B577B7B67672B2B37386
:10021000B17170B050909151935352929656579736
:10022000559594549C5C5D9D5F9F9E5E5A9A9B5B26
:1002300099595898884849894B8B8A4A4E8E8F4FD6
:100240008D4D4C8C44848545874746868242438346
:100250004181804011241FBECFE5D8E0DEBFCDBF75
:1002600010E0A0E6B0E0E2E8F2E202C005900D92F4
:10027000A639B107D9F712E0A6E9B0E001C01D9296
:10028000AF3EB107E1F70E9421040C943F110C949A
:1002900000001F920F920FB60F9211248F9385E0EA
:1002A00082BF81E0809397008F910F900FBE0F90D7
:1002B0001F9018951F920F920FB60F9211240F9056
:1002C0000FBE0F901F9018951F920F920FB60F92AE
:1002D00011240F900FBE0F901F9018951F920F9230
:1002E0000FB60F9211248F939F93AF93BF93EF9309
:1002F000FF93E091B400F0E084B195B1EE0FFF1FE1
:10030000EE57FE4F918380838091B4008130B9F421
:10031000839B15C0E091B400F0E0A091B400B0E080
:10032000AA0FBB1FAE57BE4F8D919C9190958195A2
:100330009F4FEE0FFF1FEE57FE4F918380838091FA
:10034000B4008F5F8093B4008091B400843028F0B3
:100350001092B40081E0809396008091B40087B938
:10036000369AFF91EF91BF91AF919F918F910F902E
:100370000FBE0F901F901895DC0161157105F9F003
:10038000CA01860F971F4197D0F46150704012C088
:10039000FB01EE0FFF1FEC59FE4F808191819C9372
:1003A0008081918111968C93119712966F5F7F4F88
:1003B000415050404115510559F780E0089581E0C2
:1003C00008950F931F93CF93DF93EC01A0E0B0E06B
:1003D00050E001E010E032C0CD01E3E09595879553
:1003E000EA95E1F7FB01EA0FFB1F2081FE01E80F10
:1003F000F91F33E0880F991F3A95E1F7222371F036
:100400009D01281B390BC901980102C0220F331F1F
:100410008A95E2F7C9012081282B0EC09D01281B77
:10042000390BC901980102C0220F331F8A95E2F7E8
:10043000C90180952081282320831196A417B50730
:100440005CF2DF91CF911F910F91089589E190E0C7
:1004500060E070E040E050E020E231E00E946A0796
:1004600080E890E060E070E040E050E022E331E0BE
:100470000E946A0780912601909127019093F900CC
:100480008093F80080912801909129019093FB00BE
:100490008093FA0080912A0190912B019093FD00A6
:1004A0008093FC0020E830E03093FF002093FE00B2
:1004B000809138019091390190930D0180930C0146
:1004C00080913A0190913B0190930F0180930E012E
:1004D00080913C0190913D01909311018093100116
:1004E000309313012093120183E083BF89B78160A9
:1004F00089BF85E082BF0895EF92FF920F931F930B
:10050000CF93DF93EC018A016115710509F4B5C041
:10051000CA01860F971F469708F0AFC0222321F02B
:10052000213009F0AAC017C06150704010C0FB0113
:10053000EE0FFF1FE850FF4F8081918198838081EB
:100540009181898322966F5F7F4F01501040011582
:10055000110569F790C07B010894E108F108BA0120
:10056000A70116C0B881A0E0FA01EE0FFF1FE85006
:10057000FF4FB183A08320813181898190E0282BB6
:10058000392B3183208322964F5F5F4F615070403B
:100590006115710539F7A701400F511F433051050F
:1005A00069F14430510540F44130510589F0423041
:1005B000510509F060C015C04C305105D9F14D30DE
:1005C000510509F444C04B30510509F054C029C00D
:1005D0008091F8009091F9006091280170912901B3
:1005E00008C080912601909127016091FA007091D6
:1005F000FB0040912A0150912B010CC080912601F3
:100600009091270160912801709129014091FC008F
:100610005091FD0020E231E00E946A0780E291E003
:1006200028C080910C0190910D0160913A01709168
:100630003B0108C0809138019091390160910E0111
:1006400070910F0140913C0150913D010CC080918F
:1006500038019091390160913A0170913B014091CC
:1006600010015091110122E331E00E946A0782E3F8
:1006700091E00E94630880E001C081E0DF91CF91AA
:100680001F910F91FF90EF9008950F931F93DF93A9
:10069000CF9300D000D00F92CDB7DEB78C01198276
:1006A0005B834A836115710569F1460F571F42321A
:1006B000510540F5615070407D836C831CC06C8196
:1006C0007D818A819B81099714F048E003C08A816B
:1006D0009B81482F8BEA90E00E944710F80181939C
:1006E0008F018A819B8108979B838A838C819D815E
:1006F00008969D838C838A819B8118161906FCF2CB
:1007000080E001C089810F900F900F900F900F90A3
:10071000CF91DF911F910F910895EF92FF920F9368
:100720001F93CF93DF937C0161157105C9F1CA0155
:10073000860F971F4A97A0F5EA018B0101501040E0
:100740002223A1F0213061F526C0AE01C930D105C8
:1007500014F048E050E082EA91E0B8010E944710AE
:10076000F70181937F01085F1F4F28971C161D0614
:1007700064F314C0F70121917F01AE01C930D105A6
:1007800014F048E050E082EA91E0B8010E940D10B8
:10079000085F1F4F28971C161D0664F380E001C0F8
:1007A00081E0DF91CF911F910F91FF90EF9008951D
:1007B0001F920F920FB60F9211242F933F934F93D6
:1007C0005F936F937F938F939F93AF93BF93EF93B9
:1007D000FF9382B38F7082BB81E08093B1008091E0
:1007E000AA018E7F8093AA010E944D06FF91EF918E
:1007F000BF91AF919F918F917F916F915F914F9139
:100800003F912F910F900FBE0F901F90189510924F
:10081000B30097FD02C09C0107C022273327281B85
:10082000390B81E08093B3006091B300C9012F3F81
:10083000310519F014F08FEF90E00E947D1078944C
:100840000895EF920F931F9381E087BB80E2E4E469
:10085000F1E0DF011D928A95E9F70E94B0060E943F
:1008600026020E9463068091AA0181608093AA01FA
:1008700088B7806288BF8DEC86B980EF8ABB8AB367
:100880008BBB80E06AE040E000E012EC21E030E069
:1008900052E0E52E0E946E0984E361E042E650E0FA
:1008A00023E030E00E94DD0F78940E94C00811E040
:1008B00002E080919700882309F48AC08091820128
:1008C000909183019093A6008093A5008091A2014E
:1008D00084FF2BC08091A1009091A2009093A4006E
:1008E0008093A3002091A3003091A4008091A900DF
:1008F0009091AA00821793072CF48091A9009091FF
:10090000AA0026C02091A3003091A4008091A900E4
:100910009091AA00909581959F4F28173907E4F48C
:100920008091A9009091AA0010C0809186019091B9
:1009300087019093A4008093A3008091B200882344
:1009400059F08091A3009091A400909581959F4FBC
:100950009093A4008093A3008091A3009091A400A1
:100960006091A5007091A60040E251E00E949507B9
:100970009093A8008093A7008091A7009091A80071
:1009800090939C0080939B0080916100882349F0A4
:100990008091AF00882329F08091A7009091A80052
:1009A00002C080E090E00E94070480919A008F5F6F
:1009B00080939A0080919A008B3020F010939900D8
:1009C00010929A001092970088B3812788BB71CF4C
:1009D00080919900882309F440C08091840190910E
:1009E00085019093A00080939F0080918801909151
:1009F000890190939E0080939D008091B20088238E
:100A000059F080919D0090919E00909581959F4F07
:100A100090939E0080939D0080919D0090919E00F8
:100A200060919F007091A00042E351E00E94950701
:100A30009093A2008093A1008091A1009091A200C8
:100A400080918601909187019093AA008093A900DC
:100A50001092990088B3802788BBF8948091A500F4
:100A60009091A600909365018093640180919F000E
:100A70009091A00090936701809366018091A300FC
:100A80009091A400909369018093680180919D00EA
:100A900090919E0090936B0180936A018091A700D2
:100AA0009091A80090936D0180936C018091A100BA
:100AB0009091A20090936F0180936E018091A900A4
:100AC0009091AA00909371018093700180919B0096
:100AD00090919C0090937301809372018AB59BB5AD
:100AE000909375018093740188B599B590937701BF
:100AF00080937601789480916100809344018BEA21
:100B000090E064E471E048E00E94E1010E94E308A3
:100B10008091A20180FF17C082B38F7082BB809149
:100B2000AA018E7F8093AA010E944D0682B3806C39
:100B300082BB80E291E00E94630882E391E00E9420
:100B400063081093B0008091A20181FF12C080E27F
:100B500091E00E9463088091A2018C7F8093A201A2
:100B60001092B1008091AA0181608093AA01109235
:100B7000B0008091A20182FF03C01093AF0002C0B9
:100B80001092AF008091A20183FF03C01093B200C6
:100B900002C01092B2008091B000882321F48091AD
:100BA000B100882319F01092610083CE1093610088
:100BB00080CE282F6091B7007091B800F894809192
:100BC000B500882381F497981FBC82B38F7C82BBC9
:100BD00080E002C000008F5F8634E1F780E88FBDBF
:100BE000969A1092B6002093B50080E090E034E031
:100BF000660F771F881F991F3A95D1F76150704093
:100C00008040904030E040E050E00E9485102FEF9F
:100C100030E040E050E00E94B7103BBD2ABD19BC57
:100C200018BC78940895282F6091B7007091B8008F
:100C3000F8948091B600882381F496981FBC82B303
:100C40008F7C82BB80E002C000008F5F8634E1F7BA
:100C500080E28FBD979A1092B5002093B6001BBC1E
:100C60001ABC80E090E044E0660F771F881F991F50
:100C70004A95D1F7615070408040904030E040E0AC
:100C800050E00E9485102FEF30E040E050E00E94DD
:100C9000B71039BD28BD78940895F8941FBC82B36D
:100CA0008F7082BB1BBC1ABC19BC18BC1092B5005B
:100CB0001092B6007894089588E269E240E850E026
:100CC0000E949D06089588E269E20E948B06909337
:100CD000B8008093B70022B32F7322BB21B3206CDE
:100CE00021BB22B32F7C22BB21B3206321BB1DBCBF
:100CF0001CBC1FBC1EBC54E0880F991F5A95E1F71D
:100D0000019797BD86BD1BBC1ABC19BC18BC1FBC83
:100D100081E18EBD08959FB7F8949FBFA5EAB1E029
:100D2000FD01E60FF11D208130E0A80FB11D9C915F
:100D300080E0282B392BC90108959FB7F894E5EA84
:100D4000F1E0DF01A80FB11D5C93E60FF11D4083B8
:100D50009FBF089580E18093C5010E945C060895BD
:100D6000CF93DF93C5EAD1E080E4FE0111928A952A
:100D7000E9F781E08093A5018093A6011092A70175
:100D800082E08093A8010E940107882351F4CE01DC
:100D9000809660E270E040E450E00E9411110E94F1
:100DA000AA06DF91CF9108950F931F93DF93CF93FE
:100DB00000D0CDB7DEB705EC11E092E0F8018191EB
:100DC0008F01980FF1E0053E1F07C1F79A8382E07B
:100DD0008983CE01019660E070E042E050E00E941D
:100DE0002811C801809762E070E040E250E00E9464
:100DF000281181E00F900F90CF91DF911F910F91FB
:100E00000895DF93CF9300D0CDB7DEB7CE01019622
:100E100060E070E042E050E00E9418118981823069
:100E200011F080E016C085EC91E062E070E040E2F5
:100E300050E00E9418112A81E5ECF1E092E08191E6
:100E4000980F81E0E53EF807D1F780E0291709F413
:100E500081E00F900F90CF91DF910895DF92EF9294
:100E6000FF920F931F93DF93CF93CDB7DEB76097B9
:100E70000FB6F894DEBF0FBECDBF8E010F5F1F4FC0
:100E8000C8016FEF70E040E150E00E941111EE24C4
:100E9000FF24D02E012F8D2D902FB70140E150E07F
:100EA0000E94281180E190E0E80EF91E90E0E9161A
:100EB00094E0F90681F781E060960FB6F894DEBF02
:100EC0000FBECDBFCF91DF911F910F91FF90EF909B
:100ED000DF9008950F931F93DC018B01F9011282BB
:100EE0001382148215821182108297838683718700
:100EF00060875387428711968FEF9FE7BD010E945D
:100F0000A410758764870F5F1F4F80E197E2B801D7
:100F10000E94A410882777FD8095982F6687778791
:100F2000808B918B1F910F910895AF92BF92CF92BA
:100F3000DF92EF92FF920F931F93CF93DF935B01AA
:100F4000EA01AC01461B570B2C853D85241735075C
:100F50002CF43FEFC32E3FE7D32E15C088279927E7
:100F6000821B930B481759072CF421E0C22E20E86E
:100F7000D22E09C08E819F81489F6001499FD00C6D
:100F8000589FD00C11247A010027F7FC0095102FF0
:100F90008A819B81AC81BD81E80EF91E0A1F1B1F4F
:100FA0008E859F85A889B9898E159F05A007B107F1
:100FB0005CF48A839B83AC83BD8390E1E92E97E246
:100FC000F92E012D112D29C022273327A901281B15
:100FD000390B4A0B5B0BE216F306040715076CF49A
:100FE0002A833B834C835D8380EFE82E88EDF82EC7
:100FF0008FEF082F8FEF182F10C0EA82FB820C832F
:101000001D8328853985442737FD4095542FC80115
:10101000B7010E9485107B018C0188859985892BF9
:1010200019F4EE24FF248701888199818A199B098C
:101030002A853B85A901849F9001859F300D949F4F
:10104000300D1124B982A882B601882777FD8095DA
:10105000982F442737FD4095542F620F731F841F2C
:10106000951F6E0D7F1D801F911F20E830E040E02E
:1010700050E00E94D910C901DA01813050E895078B
:101080005FEFA5075FEFB50724F481E090E8AFEFCD
:10109000BFEF9C01AD01203080E8380780E04807B1
:1010A00080E0580724F02FEF3FE740E050E0C9010F
:1010B000DF91CF911F910F91FF90EF90DF90CF9034
:1010C000BF90AF900895FC011282138214821582A2
:1010D0000895482F181614F082E00895F8946115C9
:1010E0007105F9F0E7E6F0E080E090E020813181E1
:1010F0002115310519F02617370769F4FC01EE0FA9
:10110000FF1FE80FF91FEA59FF4F40837283618385
:10111000409711F51FC0019633968031910531F744
:1011200019C0E6E6F0E020E030E08081841759F451
:10113000F901EE0FFF1FE20FF31FEA59FF4F108274
:101140001282118209C02F5F3F4F33962031310543
:1011500061F702C084E001C080E078940895809136
:101160006500813011F086E00895E091CA00F091A9
:10117000CB00309711F480E00895099580E0089540
:1011800080916500813011F086E00895E091C400FF
:10119000F091C50009951092650080E00895809156
:1011A0006500882351F4E091C600F091C7000995CD
:1011B00081E08093650080E00895813011F086E041
:1011C000089580E00895DF93CF930F92CDB7DEB7F7
:1011D00080916500882311F086E07CC0CE010196E5
:1011E0000E94D109813009F074C09981913021F0B9
:1011F000923009F06EC01BC0E091C800F091C900A8
:101200008DEB90E06EEB70E04AEB50E0099588239F
:1012100009F05FC09091BD008091C000981719F04F
:10122000992309F056C082E00E94CA0952C0A091D9
:10123000BE00B091BF003C913093BC008093B900D8
:10124000E6E6F0E080E090E020812223C1F0231761
:1012500089F4FC01EE0FFF1FE80FF91FEA59FF4F59
:101260000180F281E02DCD016AEB70E00995809359
:10127000B90005C0019633968031910529F7809118
:10128000BD00882331F19091B900992399F0E09144
:10129000BE00F091BF008091BC0080688083E09127
:1012A000BE00F091BF00918382E090E09093BB007C
:1012B0008093BA006091BE007091BF004091BA0067
:1012C0005091BB00E091C200F091C3008091C0003A
:1012D000099580E00F90CF91DF910895EF920F93E1
:1012E0001F93982F862F8150873F08F049C0609345
:1012F000C000992309F044C081E59CE09093C500AB
:101300008093C40084EC9BE09093C7008093C60058
:101310008CE59CE09093C3008093C20089EA9CE036
:101320009093C9008093C8001092CB001092CA001D
:1013300088E09CE09093EA018093E9018DEC9BE0CA
:101340009093E6018093E5018DEA9BE09093E8019C
:101350008093E701862F642FA90198010E2D0E942A
:10136000DE0C182F882369F40E94C609882311F423
:1013700013E007C01092C10081E08093650001C0B6
:1013800012E0812F1F910F91EF9008951092CD00E0
:1013900081E0089591E09093CD008093CC0081E0AE
:1013A0000895FC018091CD00882331F08091CC001C
:1013B00080831092CD0081E00895FC018091CD00E2
:1013C000882321F08091CC00808381E00895539A96
:1013D000882319F08AB1806902C08AB18F768AB9F0
:1013E000662321F08AB188628AB9089555980895D4
:1013F000CF92DF92EF92FF920F931F936A017B01CE
:10140000122F403086E9580780E0680780E07807AF
:1014100009F49FC0413086E9580780E0680780E002
:10142000780708F040C0403885E2580780E0680738
:1014300080E0780709F481C0413885E2580780E0F0
:10144000680780E0780798F4403689E0580780E024
:10145000680780E0780709F46DC0403C82E15807D6
:1014600080E0680780E0780709F085C060C0403000
:101470008BE4580780E0680780E0780709F463C0D0
:10148000403880E7580780E0680780E0780709F473
:101490005DC0403488E3580780E0680780E0780743
:1014A00009F069C04DC0403084E8580783E0680700
:1014B00080E0780709F46AC0413084E8580783E087
:1014C000680780E07807D0F440308CE2580781E06C
:1014D000680780E0780709F442C0403082EC580782
:1014E00081E0680780E07807E9F1403081EE580735
:1014F00080E0680780E07807F1F52EC0403281EA8D
:10150000580787E0680780E0780779F1403482E483
:1015100058078FE0680780E0780751F1403980ED87
:10152000580783E0680780E0780729F52FC02FEC83
:1015300030E02EC020EA31E02BC027E630E028C0A2
:1015400024E430E025C023E330E022C022E230E092
:101550001FC029E130E01CC020E130E019C02CE0C0
:1015600030E016C028E030E013C021E030E010C0C9
:1015700020E030E00DC060E472E48FE090E0A7016D
:1015800096010E94B7102150304002C023E030E0A5
:1015900030BD29B9013031F0023011F480E203C0CE
:1015A00080E001C080E3173021F0183019F48E601C
:1015B00001C08460806880BD80E060E00E94E7092F
:1015C00081E01F910F91FF90EF90DF90CF900895F1
:1015D0008CB981E00895FC018CB1808381E008958D
:1015E0001F920F920FB60F9211240F900FBE0F9003
:1015F0001F9018951F920F920FB60F9211242F93E0
:101600003F934F935F936F937F938F939F93AF938A
:10161000BF93EF93FF93E091E901F091EA010995FF
:10162000FF91EF91BF91AF919F918F917F916F91BA
:101630005F914F913F912F910F900FBE0F901F9090
:1016400018951F920F920FB60F9211242F933F936C
:101650004F935F936F937F938F939F93AF93BF93BA
:10166000EF93FF93E091E501F091E6010995FF9179
:10167000EF91BF91AF919F918F917F916F915F910A
:101680004F913F912F910F900FBE0F901F90189583
:1016900083E085BD89B7806489BF85E084BD0895F6
:1016A00085B58C7F85BD89B78F7B89BF88B78068FA
:1016B00088BF14BC089515BC89B78F7B89BF85E0AE
:1016C00084BD0E94500B81E008951F920F920FB6C7
:1016D0000F9211242F933F934F935F936F937F93B8
:1016E0008F939F93AF93BF93EF93FF9385E084BD58
:1016F000E091E701F091E8010995FF91EF91BF9129
:10170000AF919F918F917F916F915F914F913F9199
:101710002F910F900FBE0F901F901895DC013FEF97
:101720002FEF11C08D91422F482750E0CA018C5AEB
:101730009F4FFC0124914C5A5E4FFA01849123275C
:1017400061507040382F6115710561F7932F80E06B
:1017500030E0282B392BC90108951F938091CF00C9
:10176000882321F0823021F010E006C080E001C023
:1017700081E00E94CA09182F0E94500B81E08093DB
:10178000CF00812F1F910895F89480E060E00E94BF
:10179000E7090E94500B789408951F938091CE0022
:1017A000882319F0813029F406C081E060E00E94AE
:1017B000E70910E02AC08091D2009091D300892BD4
:1017C000D1F0E091D000F091D10080810E94E80A30
:1017D0008091D0009091D10001969093D100809398
:1017E000D0008091D2009091D30001979093D300C4
:1017F0008093D200DECF83E00E94CA09182F81E0D7
:1018000060E00E94E7091092CE00812F1F91089599
:10181000DF93CF930F92CDB7DEB7CE0101960E9432
:10182000EB0A8091CF00813039F0813098F182301D
:10183000B9F0833089F52EC01092D5001092D400F3
:101840008091D4009091D5002981FC01E151FE4F97
:10185000208301969093D5008093D40082E018C035
:101860008091D4009091D5008F3F910509F078F4D4
:101870008091D4009091D5002981FC01E151FE4F67
:10188000208301969093D5008093D40003C083E019
:101890008093CF000E94480B80E00F90CF91DF91A2
:1018A0000895F8941092CF0081E060E00E94E7096B
:1018B0000E94480B789408951F93282FF894109154
:1018C000CF00113011F085E041C0FB013197F0935A
:1018D000D100E093D00081E090E09093D30080931A
:1018E000D20020838091D2009091D300840F951F65
:1018F0009093D3008093D2006091D2007091D30076
:10190000CF010E948E0B2091D2003091D300F901BB
:10191000E151FE4F80832F5F3F4F3093D3002093E0
:10192000D2002091D2003091D300F901E151FE4F55
:1019300090832F5F3F4F3093D3002093D2001093BA
:10194000CE0080E061E00E94E70980E078941F917A
:101950000895EF92FF920F931F93CF93DF93EC01C3
:101960007B018A01F8948091D4009091D50004976E
:10197000E0F06091D4007091D5008FEE91E00E946C
:101980008E0B892B91F48091EF0188838091D40094
:101990009091D5000397F8019183808380EF91E0C7
:1019A000F7019183808380E001C085E07894DF9126
:1019B000CF911F910F91FF90EF900895CF92DF92FA
:1019C000EF92FF920F93862F69017A01F894BA0182
:1019D000A90128E00E94F809813009F581E0C816C4
:1019E0008BE4D80680E0E80680E0F80628F08AE07C
:1019F00090E0A0E0B0E00DC0CC0CDD1CEE1CFF1CA4
:101A000060EA7FE787E190E0A70196010E94B710A6
:101A1000C9010E945B0B813011F480E001C083E0BA
:101A200078940F91FF90EF90DF90CF900895CF932F
:101A3000DF93FC01EB01888199810697C0F1A181B8
:101A4000B281938180E02481422F50E0482B592BB2
:101A50003581CA0187709070BA0123E07695679549
:101A60002A95E1F7892B19F0262F2F5F01C0262F29
:101A7000CA010197805B9740D0F42317C1F47A2FF5
:101A800060E08B2F90E0682B792B6F5F7F4FCF0149
:101A9000069621E00E948D03882319F00E946E10A3
:101AA00007C085E090E09983888380E001C083E0EF
:101AB000DF91CF910895DF93CF9300D0CDB7DEB7FC
:101AC000DC01FB0180819181059761F511962C91D4
:101AD000119712963C91129714968C911497882323
:101AE00009F513969C91892F81508E3FD8F01A8268
:101AF0009F3F19F481E0898301C01982722F60E051
:101B0000832F90E0682B792B6F5F7F4FCE0101967A
:101B100041E050E021E00E948D03882321F00E94E3
:101B20006E1001C083E00F900F90CF91DF91089568
:101B30000F931F93CF93DF93FC01EB018881998171
:101B4000059709F047C00181DF0112963281938128
:101B500080E02481422F50E0482B592BCA01019785
:101B60008F5C9740B8F51982188281E08083888164
:101B70009981019699838883CA0187709070BA0110
:101B800013E0769567951A95E1F7892B19F0162FD2
:101B90001F5F01C0162F1183888199810196998357
:101BA0008883702F60E0832F90E0682B792B6F5F24
:101BB0007F4FCD0120E00E948D03882319F00E9401
:101BC0006E1009C088819981810F911D9983888346
:101BD00080E001C083E0DF91CF911F910F910895C4
:101BE0000F931F93CF93DF93FC01EB0188819981C1
:101BF000059709F046C00181DF0112963281938179
:101C000080E02481422F50E0482B592BCA010197D4
:101C10008F5C9740B0F51982188282E080838881BA
:101C20009981019699838883CA0187709070BA015F
:101C300023E0769567952A95E1F7892B19F0162F01
:101C40001F5F01C0162F11838881998101969983A6
:101C50008883702F60E0832F90E0682B792B6F5F73
:101C60007F4FCD010E944503882319F00E946E101A
:101C700009C088819981810F911D9983888380E0B3
:101C800001C083E0DF91CF911F910F9108958F9252
:101C90009F92AF92BF92CF92DF92EF92FF920F93FB
:101CA0001F93CF93DF93EC018B01FB018081918126
:101CB0000A9708F467C0898022E0A22EB12CAC0EEE
:101CC000BD1E9A809B8180E02C81E22EFF24E82AB1
:101CD000F92AED81FE816F8128857985C7010197F9
:101CE0008D37910508F053C0962F80E0422F50E0C9
:101CF000482B592B4115510509F449C04A37510564
:101D000008F045C09A01220F331F872F90E0281753
:101D10003907E9F57E2F60E08F2F90E0682B792B53
:101D20006F5F7F4FCE010A9621E00E947C028823DC
:101D300059F5F8011182108287E1888380819181B1
:101D40000196918380836701CC0CDD1CC982808160
:101D50009181019691838083782D60E0892D90E0B8
:101D6000682B792B6F5F7F4FC501A70120E00E9490
:101D70007C02882349F4F801808191818C0D9D1D9E
:101D80009183808380E004C00E946E1001C083E0D4
:101D9000DF91CF911F910F91FF90EF90DF90CF9047
:101DA000BF90AF909F908F9008950F931F93CF9304
:101DB000DF93FC01EB01888199810597C1F5B18121
:101DC0009F012E5F3F4FA2818481482F50E0CA01BE
:101DD00001978D37910558F51982188283E0808329
:101DE000888199810196998388838A01000F111F48
:101DF0000183888199810196998388837B2F60E094
:101E00008A2F90E0682B792B6F5F7F4FC90120E00C
:101E10000E947C02882319F00E946E1009C08881FC
:101E20009981800F911F9983888380E001C083E0AE
:101E3000DF91CF911F910F910895CF93DF93FC0114
:101E4000EB0188819981069760F13181A2819381AC
:101E500080E02481422F50E0482B592B2581CA0174
:101E6000019788379105E8F4CA01880F991F281750
:101E7000C1F4732F60E08A2F90E0682B792B6F5F9D
:101E80007F4FCF01069621E00E947C02882319F043
:101E90000E946E1007C085E090E09983888380E0FF
:101EA00001C083E0DF91CF910895DC01FB018081C7
:101EB0009181059711F083E0089511967C91119717
:101EC00060E012968C91129790E0682B792B6F5FEF
:101ED0007F4FCD01039641E050E021E00E947C025B
:101EE000882311F00E946E100895FF920F931F93A4
:101EF000CF93DF93FC01EB01888199810597D1F5A0
:101F0000F180DF0112963281938180E02481422F9B
:101F100050E0482B592BCA0101978C37910550F599
:101F20001982188284E0808388819981019699833F
:101F300088838A01000F111F01838881998101968E
:101F4000998388837F2D60E0832F90E0682B792B25
:101F50006F5F7F4FCD010E94BC01882319F00E9462
:101F60006E1009C088819981800F911F99838883A1
:101F700080E001C083E0DF91CF911F910F91FF902E
:101F800008950F931F938B019C012F5F3F4FE6ED48
:101F9000F0E04091F6005091F700C901BF010E94A6
:101FA00008118091F6009091F7000196F801918355
:101FB000808380E01F910F910895CF93DF93E82FE6
:101FC000E901C9010296809710F084E023C0E093F4
:101FD000D600662311F480E001C08FEF8093D70014
:101FE00082E090E09093F7008093F600209789F0CC
:101FF00028ED30E0C901BA01AE010E9408118091BC
:10200000F6009091F7008C0F9D1F9093F70080933E
:10201000F60080E0DF91CF9108950F931F93CF9347
:10202000DF9330E0DB0153E0B695A7955A95E1F7D1
:1020300067707070E1E0F0E002C0EE0FFF1F4A959C
:10204000E2F731978C010A0F1B1FE801488150E02D
:102050001196A80FB91F9C9180E0482B592B062E92
:1020600002C0EE0FFF1F0A94E2F7E095F0954E23B1
:102070005F2302C0220F331F6A95E2F7422B532BD6
:1020800048835C93DF91CF911F910F910895FB01DD
:10209000B3E0F695E795BA95E1F7DC01AE0FBF1F07
:1020A0002C9130E011969C9180E0822B932BA3E041
:1020B000EE0FFF1FAA95E1F76E1B7F0B02C09695EE
:1020C00087956A95E2F721E030E002C0220F331FC6
:1020D0004A95E2F72150304082230895813029F05B
:1020E000813028F0873039F404C082E0089580E020
:1020F000089586E0089584E00895662319F40E9407
:10210000D90508950E9413060895629FD001739F18
:10211000F001829FE00DF11D649FE00DF11D929F83
:10212000F00D839FF00D749FF00D659FF00D9927C2
:10213000729FB00DE11DF91F639FB00DE11DF91FE6
:10214000BD01CF011124089597FB092E07260AD05F
:1021500077FD04D049D006D000201AF4709561951F
:102160007F4F0895F6F7909581959F4F0895A1E2CE
:102170001A2EAA1BBB1BFD010DC0AA1FBB1FEE1F01
:10218000FF1FA217B307E407F50720F0A21BB30B4C
:10219000E40BF50B661F771F881F991F1A9469F7C8
:1021A00060957095809590959B01AC01BD01CF0124
:1021B000089597FB092E05260ED057FD04D0D7DFD2
:1021C0000AD0001C38F450954095309521953F4F2A
:1021D0004F4F5F4F0895F6F79095809570956195F4
:1021E0007F4F8F4F9F4F0895AA1BBB1B51E107C024
:1021F000AA1FBB1FA617B70710F0A61BB70B881F97
:10220000991F5A95A9F780959095BC01CD01089525
:10221000FB01DC0102C001900D9241505040D8F703
:102220000895DC0101C06D9341505040E0F70895DE
:10223000DC01CB01FC01E199FECF06C0FFBBEEBB88
:10224000E09A31960DB20D9241505040B8F7089582
:10225000DC01CB0103C02D910E943311415050404D
:10226000D0F70895262FE199FECF9FBB8EBB2DBBE3
:102270000FB6F894E29AE19A0FBE01960895F89489
:02228000FFCF8E
:102282000A01AABBCC0211C10F04750F03D50E10AF
:102292001D0F06550F17470E01980D055B0D0F1701
:1022A2000D02F00D00000000000000000000000020
:0622B20000000000000026
:00000001FF
