:100000000C946F040C949E040C949E040C949E0417
:100010000C949E040C94FA6A0C941F6B0C949E042E
:100020000C949E040C94A0040C949E040C949E04C6
:100030000C9494540C949E040C949E040C949E0472
:100040000C949E040C949E040C949E040C949E04A8
:100050000C949E040C949E040C949E040C949E0498
:100060000C949E040C949E040C949E040C949E0488
:100070000C949E040C949E040C94E2520C940D5328
:100080000C94D7520C949E040C949E045B73645D94
:1000900020756E6B6E6F776E206572726F720A00DC
:1000A0005B73645D206F70656E696E6720726F6F41
:1000B00074206469726563746F7279206661696C1B
:1000C00065640A005B73645D206F70656E696E67BE
:1000D00020706172746974696F6E206661696C6505
:1000E000640A005B73645D204D4D432F53442069C7
:1000F0006E697469616C697A6174696F6E2066619A
:10010000696C65640A005B73645D206F70656E697D
:100110006E672066696C6573797374656D206661BE
:10012000696C65640A005B73645D206361726420BE
:10013000696E697469616C697A65640A005B7364ED
:100140005D206361726420756E706C7567676564AD
:100150000A005B646863705D206572726F720A00EA
:100160005B646863705D2074696D656F75740A0007
:100170005B646863705D206C656173652065787091
:10018000697265640A005B646863705D206C656118
:100190007365206578706972696E670A005B6468D0
:1001A00063705D206C656173652064656E6965646C
:1001B0000A005B646863705D206C65617365206133
:1001C000637175697265640A00485454502F004881
:1001D0005454502F312E3000485454502F312E316A
:1001E00000504F535400484541440047455400BE19
:1001F00006C306CC06D106DB06E106EB06E106F0F7
:1002000006F6060107F60606070A071A071F07295A
:10021000072E0739073E0747074C075C0761073C75
:100220002F626F64793E3C2F68746D6C3E00223EF5
:100230003C2F666F726D3E3C2F703E003C2F746504
:100240007874617265613E3C62723E3C696E7075A5
:100250007420747970653D227375626D6974222013
:1002600076616C75653D2200223E3C746578746150
:10027000726561206E616D653D2276616C2220633E
:100280006F6C733D2235302220726F77733D2231BF
:1002900030223E0022206D6574686F643D22003C70
:1002A000703E3C666F726D20616374696F6E3D22B3
:1002B000003C2F693E3C2F703E003C703E3C693E46
:1002C000002064656D6F3C2F68313E003C68746DA2
:1002D0006C3E3C626F64793E3C68313E6D6567619F
:1002E0002D6574682000746578742F68746D6C00D7
:1002F000436F6E74656E742D5479706500504F5362
:10030000540076616C00474554002F706F74002FC5
:1003100064656D6F5F706F7374002F64656D6F5FE0
:1003200067657400343031202D20556E6175746816
:100330006F72697A656400746578742F68746D6C87
:1003400000436F6E74656E742D5479706500426160
:10035000736963207265616C6D3D226D6567612D07
:1003600065746822005757572D41757468656E741F
:1003700069636174650061646D696E3A706173737D
:10038000776F72640042617369632000417574681D
:100390006F72697A6174696F6E003C68746D6C3E4F
:1003A0003C626F64793E3C68313E57656C636F6DAB
:1003B0006520746F206D6567612D657468213C2F21
:1003C00068313E3C703E436F6E67726174756C615C
:1003D00074696F6E732120596F752068617665208E
:1003E000796F757220706572736F6E616C207665BF
:1003F0007273696F6E206F66206D6567612D65741D
:100400006820757020616E642072756E6E696E670B
:10041000213C2F703E3C703E5768617420796F75A7
:100420002063616E20646F206E6F772069733A3CA1
:100430002F703E3C756C3E3C6C693E42726F777328
:100440006520746865203C6120687265663D227392
:10045000642F223E636F6E74656E74206F66207425
:10046000686520636F6E6E6563746564206D656D8D
:100470006F727920636172643C2F613E2E3C2F6C59
:10048000693E3C6C693E4C6F6F6B2061742061204B
:100490003C6120687265663D2264656D6F5F6765CB
:1004A00074223E64656D6F207061676520776869AE
:1004B00063682073686F777320686F7720746F208C
:1004C0006576616C75617465204745542070617272
:1004D000616D65746572733C2F613E2E3C2F6C69B3
:1004E0003E3C6C693E446F203C6120687265663D0D
:1004F0002264656D6F5F706F7374223E746865204F
:1005000073616D6520666F7220504F535420706187
:1005100072616D65746572733C2F613E2E3C2F6C69
:10052000693E3C2F756C3E3C2F626F64793E3C2FD8
:1005300068746D6C3E00746578742F68746D6C001F
:10054000436F6E74656E742D547970650076616CBE
:10055000002F00436F6E74656E742D5479706500C2
:10056000436F6E74656E742D4C656E6774680025FC
:100570006C75006170706C69636174696F6E2F6F68
:10058000637465742D73747265616D003C2F7461C2
:10059000626C653E3C2F7072653E3C2F626F6479E1
:1005A0003E3C2F68746D6C3E003C2F74643E3C747E
:1005B000643E256C753C2F74643E3C2F74723E0083
:1005C0003C6120687265663D222573223E25733C9E
:1005D0002F613E003C6120687265663D2225732FC5
:1005E000223E25732F3C2F613E003C74723E3C74CA
:1005F000643E003C2F68313E3C626F64793E3C7043
:1006000072653E3C7461626C653E003C68746D6C62
:100610003E3C68313E4469726563746F7279206C48
:10062000697374696E67206F662000746578742F33
:1006300068746D6C00436F6E74656E742D547970C0
:1006400065004C6F636174696F6E002F73642F00D7
:10065000746578742F786D6C00436F6E74656E747A
:100660002D5479706500436F6E74656E742D4C6502
:100670006E67746800256C7500696E646578002F7C
:10068000646F5F746F676C6500746578742F786D44
:100690006C00436F6E74656E742D54797065004301
:1006A0006F6E74656E742D4C656E67746800256C92
:1006B00075002F7374617475732E786D6C002E63E2
:1006C000737300746578742F637373002E676966A3
:1006D00000696D6167652F676966002E68746D6CCF
:1006E00000746578742F68746D6C002E68746D00EA
:1006F0002E6A70656700696D6167652F6A7065674E
:10070000002E6A7067002E6A7300746578742F6A11
:10071000617661736372697074002E706E67006930
:100720006D6167652F706E67002E74787400746554
:1007300078742F706C61696E002E786D6C00746532
:1007400078742F786D6C002E7A6970006170706C0F
:1007500069636174696F6E2F7A6970002E636769CF
:10076000006170706C69636174696F6E2F63676993
:1007700000C8005D082E01600890016608910172B2
:100780000893017F089401890898019308F401A354
:1007900008F501B908F701C908436F6E74656E74F6
:1007A0002D4C656E6774680025303478000D0A00A2
:1007B000253034780D0A00300D0A0D0A000D0A00AC
:1007C0006368756E6B6564005472616E7366657202
:1007D0002D456E636F64696E6700636C6F736500AF
:1007E000436F6E6E656374696F6E000D0A00636C13
:1007F0006F736500436F6E6E656374696F6E000D95
:100800000A003A20000D0A003A20000D0A003A20A2
:100810000025303364202D2000746578742F6874AF
:100820006D6C00436F6E74656E742D547970650045
:100830006D6567612D657468005365727665720039
:100840000D0A00253033642000485454502F312EB7
:10085000302000485454502F312E3120004F4B008F
:10086000466F756E640042616420526571756573F0
:100870007400556E617574686F72697A65640046BC
:100880006F7262696464656E004E6F7420466F75A6
:100890006E6400526571756573742054696D656F7F
:1008A000757400496E7465726E616C205365727662
:1008B0006572204572726F72004E6F7420496D70C0
:1008C0006C656D656E746564005365727669636509
:1008D00020556E617661696C61626C65000011245F
:1008E0001FBECFEFD0E1DEBFCDBFEDE6F0E08081EF
:1008F0008F78808385B78F7B85BF80818D7F808354
:1009000010926C0085B7806885BF15E1A0E0B1E169
:10091000E2E6F2EF00E00BBF02C007900D92A634B2
:10092000B107D9F716E7A6E4B5E101C01D92A030E2
:10093000B107E1F70E94C2090C942F790C940000D2
:100940001F920F920FB60F9211248F939F93809155
:100950004C158F5F80934C1580914C15823059F463
:1009600080914A1590914B15019690934B15809369
:100970004A1510924C1581E08093F1759F918F91EB
:100980000F900FBE0F901F901895DC016115710537
:10099000F1F0CA01860F971F8C97C8F4809100115F
:1009A000FB01E81BF109EE0FFF1FEA56FB490AC0E5
:1009B00081818C93808111968C931197129641506E
:1009C000504032964115510599F780E0089581E035
:1009D00008958F929F92AF92BF92CF92DF92EF9243
:1009E000FF920F931F93DF93CF93CDB7DEB72B9773
:1009F0000FB6F894DEBF0FBECDBF6B017C015A016C
:100A000020E030E040E050E00E94266F882344F46C
:100A1000F7FAF094F7F8F0948DE2F50181935F0115
:100A2000C701B6010E94B46FDC01CB014C018E01FD
:100A30000F5F1F4FB8014AE050E00E945775D50183
:100A4000980102C0EC93D8018A2F8A19F901E80FA6
:100A5000F11DE0818D010F5F1F4FEE2399F78EE2AC
:100A60008C935801B401882777FD8095982F0E94B8
:100A7000566F9B01AC01C701B6010E94F26C2FE6D4
:100A800032E143E85AE30E94236D20E030E048EC75
:100A900052E40E94506D0E94B46F6A30710534F4C4
:100AA00080E3F80180830894A11CB11CCB018E0166
:100AB0000F5F1F4FB8014AE050E00E945775D50103
:100AC00001C0ED938A2F8A19F801E80FF11DE0812A
:100AD000EE23B9F71C922B960FB6F894DEBF0FBE2B
:100AE000CDBFCF91DF911F910F91FF90EF90DF90DD
:100AF000CF90BF90AF909F908F9008958F929F92CC
:100B0000AF92BF92CF92DF92EF92FF920F931F931B
:100B1000CF93DF93DC016115710509F482C2CA012C
:100B2000860F971F8636910508F07BC2222321F09D
:100B3000213009F076C214C0FB01EE0FFF1FE05513
:100B4000FC490AC081818C93808111968C93119706
:100B500012964150504032964115510599F75FC2A7
:100B60008090BA639090BB63A090CE63B090CF6347
:100B700023E03FE0A222B32261507040FB01EE0F60
:100B8000FF1FEE54FC498A010FC03C9120E03183E5
:100B9000208311968C91119790E0822B932B819357
:100BA00091931296015010400115110571F7EB0158
:100BB000C40FD51FC233D10581F580911464909183
:100BC0001564A0E0B0E080938E6490938F64A0934E
:100BD0009064B093916460918E6470918F64809101
:100BE00090649091916420917A6430917B644091FB
:100BF0007C6450917D64E0909264F09093640091E5
:100C0000946410919564EAEECE2EE4E6DE2E0E9406
:100C10008269C6010E94F46A93C0C333D10581F58D
:100C20008091166490911764A0E0B0E080937A649C
:100C300090937B64A0937C64B0937D6460918E6498
:100C400070918F64809190649091916420917A6406
:100C500030917B6440917C6450917D64E09092641B
:100C6000F09093640091946410919564BAEECB2E49
:100C7000B4E6DB2E0E948269C6010E94F46A8DC030
:100C8000C433D10581F58091186490911964A0E076
:100C9000B0E08093926490939364A0939464B09333
:100CA000956460918E6470918F648091906490914E
:100CB000916420917A6430917B6440917C6450917E
:100CC0007D64E0909264F09093640091946410913C
:100CD0009564AAEECA2EA4E6DA2E0E948269C601A5
:100CE0000E94F46A73C0C533D10551F580911A642E
:100CF00090911B649093F5758093F47560918E6468
:100D000070918F64809190649091916420917A6445
:100D100030917B6440917C6450917D64E09092645A
:100D2000F09093640091946410919564FAEECF2E44
:100D3000F4E6DF2E0E948269C6010E94F46A66C052
:100D4000C633D10551F580911C6490911D64909338
:100D5000F3758093F27560918E6470918F648091C9
:100D600090649091916420917A6430917B64409179
:100D70007C6450917D64E0909264F0909364009163
:100D8000946410919564EAEECE2EE4E6DE2E0E9485
:100D90008269C6010E94F46A59C0C933D105B1F411
:100DA000609122647091236480E090E0CB0177270A
:100DB0006627209120643091216440E050E0622B4E
:100DC000732B842B952B0E94086952C0CB33D1051D
:100DD000E9F4609126647091276480E090E0CB0193
:100DE00077276627209124643091256440E050E005
:100DF000622B732B842B952BBAE0660F771F881F0D
:100E0000991FBA95D1F70E94045C4BC0CD33D10530
:100E1000E9F460912A6470912B6480E090E0CB014A
:100E200077276627209128643091296440E050E0BC
:100E3000622B732B842B952BFAE0660F771F881F8C
:100E4000991FFA95D1F70E94A16091C0CF33D105C7
:100E500079F460912C6470912D6480E090E0209191
:100E60002E6430912F6440E050E00E94825F7FC08A
:100E7000C134D105B1F4609132647091336480E083
:100E800090E0CB0177276627209130643091316460
:100E900040E050E0622B732B842B952B0E946C60FA
:100EA00066C0C434D10509F062C0609126647091B7
:100EB000276480E090E0CB017727662720912464A7
:100EC0003091256440E050E0622B732B842B952BEE
:100ED0000E94045C60912A6470912B6480E090E031
:100EE000CB0177276627209128643091296440E060
:100EF00050E0622B732B842B952B0E94A160609194
:100F00002C6470912D6480E090E020912E643091EB
:100F10002F6440E050E00E94825F609132647091E3
:100F2000336480E090E0CB0177276627209130641E
:100F30003091316440E050E0622B732B842B952B71
:100F40000E946C60609122647091236480E090E064
:100F5000CB0177276627209120643091216440E0FF
:100F600050E0622B732B842B952B0E9408692091F3
:100F7000BA633091BB6327FF0AC02070C4018F772A
:100F80009070282B392B3093BB632093BA638091E8
:100F9000BA639091BB6397FF0BC0907020E03FE76E
:100FA00082229322882999299093BB638093BA6304
:100FB0002091CE633091CF63C90183709070892BEB
:100FC00049F4C50183709070822B932B9093CF636B
:100FD0008093CE632091CE633091CF63C90180703E
:100FE0009370892B49F4C50180709370822B932BE9
:100FF0009093CF638093CE632091CE633091CF6383
:10100000C90180709C70892B51F480E09CE0A8227B
:10101000B922A22AB32AB092CF63A092CE6380E015
:1010200001C081E0DF91CF911F910F91FF90EF9070
:10103000DF90CF90BF90AF909F908F9008950F93C7
:101040001F93DF93CF9300D000D00F92CDB7DEB7C0
:101050008C0119825B834A836115710569F1460F22
:10106000571F4232510540F5615070407D836C83BB
:101070001CC06C817D818A819B81099714F048E0B6
:1010800003C08A819B81482F86E495E10E948059A4
:10109000F80181938F018A819B8108979B838A83C2
:1010A0008C819D8108969D838C838A819B811816F3
:1010B0001906FCF280E001C089810F900F900F901B
:1010C0000F900F90CF91DF911F910F910895EF92A4
:1010D000FF920F931F93CF93DF937C0161157105EE
:1010E000C9F1CA01860F971F4A97A0F5EA018B0143
:1010F000015010402223A1F0213061F526C0AE013D
:10110000C930D10514F048E050E084E295E6B8011A
:101110000E948059F70181937F01085F1F4F289734
:101120001C161D0664F314C0F70121917F01AE0166
:10113000C930D10514F048E050E084E295E6B801EA
:101140000E944659085F1F4F28971C161D0664F31E
:1011500080E001C081E0DF91CF911F910F91FF905E
:10116000EF900895979889E00E945351979A0895B7
:101170000F931F93CF93DF93EC011A9889E00E949D
:101180005351182F1A9A1B9882E10E945351082F2D
:101190001B9A1B9883E10E945351682F1B9A20E0F1
:1011A00030E0412F50E0FE01E20FF31FCA01022E92
:1011B00002C0959587950A94E2F7817080832F5F2E
:1011C0003F4F2630310579F780B390E0B4E0969533
:1011D0008795BA95E1F721E030E082279327817067
:1011E0008E8381B190E0A6E096958795AA95E1F768
:1011F0008227932781708F8381B190E0F5E09695E7
:101200008795FA95E1F7822793278170888781B1C6
:1012100090E0E4E096958795EA95E1F78227932799
:10122000817089871A8667FF02C081E08A87262F2E
:1012300030E0C90176E0969587957A95E1F781705F
:101240008B873695279521702C87802F90E024E09E
:10125000969587952A95E1F781708D8786E056955A
:1012600047958A95E1F7842F81708E871F8617FF37
:1012700002C081E08F87DF91CF911F910F91089578
:10128000979880E00E947151979A97988FEF0E94EB
:101290006C51979A0895CF93DF93DC01E7E0F1E179
:1012A000C0E0D0E08C91882321F080819181C82B0F
:1012B000D92B1196329681E1EF31F80799F71B98F7
:1012C0008C2F0E947C511B9A1B988D2F0E94775166
:1012D0001B9ADF91CF910895FC01118210821A9818
:1012E00080E00E9471511A9A1A988FE30E946C5103
:1012F0001A9A0895FC01118210821B9880E060E127
:101300000E9460511B9A1B9881E062EC0E94605120
:101310001B9A08958230B1F0833028F4882351F06D
:10132000813079F50BC08430A9F0843078F08530B5
:1013300041F51CC000D082EB91E00FC000D08DE9D8
:1013400091E00BC000D086E891E007C000D080E7B4
:1013500091E003C000D080E691E0EDB7FEB7928344
:1013600081830E9495750F900F90089500D082E5BB
:1013700091E0EDB7FEB7928381830E9495750F903F
:101380000F9008952F923F924F925F926F927F92AB
:101390008F929F92AF92BF92CF92DF92EF92FF9285
:1013A0000F931F93DF93CF93CDB7DEB72C970FB674
:1013B000F894DEBF0FBECDBF2FE088E190E00FB6FE
:1013C000F894A89581BD0FBE21BD81EF88BB87BB76
:1013D00080EA82BB80EE81BB8CE083B982B981E078
:1013E0008093620083E48093610080916200816059
:1013F00080936200959A1A9A1B9A979A809162003C
:101400008D7F8093620080E49CE90197F1F78091E1
:10141000620082608093620026E035E6C90160E0E8
:1014200070E04EE050E00E9402751092206510922C
:10143000216510922265109223652EE734E6C901DA
:1014400060E070E040E150E00E94027524E135E682
:10145000C90160E070E04CE050E00E94027510921B
:10146000461510924715109248151092491583E0C1
:10147000E4E2F5E6DF011D928A95E9F784E5E6E905
:10148000F4E6DF011D928A95E9F788ECE2EBF3E6DA
:10149000DF011D928A95E9F778940E94283A0E940C
:1014A00040098EE794E60E946C0984E195E60E946B
:1014B0007A0981E091E10E94515081E091E10E941E
:1014C00096280E94152880E090E060E070E040E0FF
:1014D00050E00E9476290E94A9280E943B340E9475
:1014E000E53880E090E00E9430788A3A91F181E01E
:1014F00090E09093D1638093D0638CEB93E60E944D
:101500008D0E80E09FE09093CF638093CE638AEC52
:1015100093E60E943D0F6091CE637091CF6384E1AA
:1015200090E00E945F788CEB93E662E070E04EE022
:1015300050E00E943E788AEC93E660E170E044E07F
:1015400050E00E943E7880E090E06AEA0E944E7887
:1015500030C088E190E00E9438789093D363809304
:10156000D2638AE190E00E9438789093D5638093AB
:10157000D4638CE190E00E9438789093D763809395
:10158000D6638CEB93E662E070E04EE050E00E94A0
:1015900020788AEC93E660E170E044E050E00E943D
:1015A00020788EEC93E664E170E042E050E00E9427
:1015B000207885B58D6085BD87B7806887BF8FE04F
:1015C00083BD0E943C1088E590E00E94863E86EF35
:1015D00091E00E94C455882309F094C00E941655DA
:1015E00080E091E09093F3758093F27588EC90E041
:1015F0009093F5758093F47582E390E0A0E0B0E0FD
:1016000080938E6490938F64A0939064B093916460
:1016100085E090E0A0E0B0E080937A6490937B64F2
:10162000A0937C64B0937D648AE090E0A0E0B0E099
:101630008093926490939364A0939464B093956420
:101640008DE790E090933764809336648091F475D1
:101650009091F57590931B6480931A648091F27554
:101660009091F37590931D6480931C6480918E64B7
:1016700090918F64A0919064B0919164909315645F
:101680008093146480917A6490917B64A0917C64CF
:10169000B0917D64909317648093166480919264F6
:1016A00090919364A0919464B0919564909319641F
:1016B0008093186460918E6470918F6480919064BF
:1016C0009091916420917A6430917B6440917C6424
:1016D00050917D64E0909264F090936400919464E2
:1016E00010919564EAEECE2EE4E6DE2E0E94826929
:1016F0000E94A15BDD2444245524332433941CE44C
:10170000212E01C0FFCFA8956091CE637091CF6369
:1017100074FF0CC0CB019F7E9093CF638093CE6308
:1017200060707F7084E190E00E945F782091CE63CA
:101730003091CF63C901807E907E892B09F466C009
:1017400025FF09C02F7D3093CF632093CE638CEBB0
:1017500093E60E948D0E8091CE639091CF6386FFB9
:101760000DC08F7B9093CF638093CE638CEB93E619
:1017700062E070E04EE050E00E9420788091CE63FD
:101780009091CF6387FF0DC08F779093CF63809345
:10179000CE638CEB93E662E070E04EE050E00E9496
:1017A0003E788091CE639091CF6395FF09C09F7D75
:1017B0009093CF638093CE638AEC93E60E943D0FB3
:1017C0008091CE639091CF6396FF0DC09F7B9093E5
:1017D000CF638093CE638AEC93E660E170E044E0EF
:1017E00050E00E9420788091CE639091CF6397FF64
:1017F0000DC09F779093CF638093CE638AEC93E67E
:1018000060E170E044E050E00E943E780E94EB0E00
:10181000E8E9F4E6BAE1EB2EF12CEE0EFF1E00E053
:1018200010E0808191816AE070E00E9495729B01D6
:101830003070D7012D933C930E5F1F4F0E30110572
:101840006CF4828193816AE070E00E949572962E1A
:10185000882428293929D7012D933C93349622E0F6
:1018600030E0E20EF31E08301105D9F68EE794E65B
:101870000E94B8080091BA641091BB640070109384
:10188000BB640093BA640E94B20890E0802B912B55
:101890009093BB648093BA6440E050E060E070E0F5
:1018A0004830510514F061E070E0FA01E258FB495C
:1018B0008081FB01EA5BFA4E9B01A3E0220F331FFC
:1018C000AA95E1F7882371F0CA01821B930BA1E06E
:1018D000B0E002C0AA0FBB1F8A95E2F720812A2B35
:1018E00020830FC0CA01821B930B21E030E002C0AD
:1018F000220F331F8A95E2F7C90180952081822348
:1019000080834F5F5F4F4F30510551F60E94842313
:101910008823B9F40E94A622892B99F0C2010E9463
:10192000321F0E94F82200D0EDE3F1E0ADB7BEB760
:101930001296FC93EE9311970E94957544245524BA
:101940003BC00E94A622892BC9F50E9484238823CC
:10195000A9F10E9416260E9417238E3FD1F08F3FD7
:101960002CF48C3FD1F08D3FE1F40BC08F3F69F038
:101970008823B9F40E94A6222C0100D0E6E2F1E00F
:1019800013C000D0E6E0F1E00FC000D0E3EEF0E0DD
:101990000BC000D0E4ECF0E007C000D0E0EAF0E0DB
:1019A00003C000D0ECE8F0E0ADB7BEB71296FC93F0
:1019B000EE9311970E9495750F900F902D2D30E0AA
:1019C0008091BA649091BB6428173907E9F00E94AE
:1019D00025558091BA6486FF05C086EF91E00E948C
:1019E000C4550BC080E06AE040E000E012EC21E06A
:1019F00030E092E0E92E0E94F85590E0892B19F42E
:101A00000E94165501C0000080914D15882349F5AC
:101A10000E941850882329F18091BA6487FF05C07D
:101A20008AE899E00E94EF3B19C02AE029831A82D4
:101A300092E09B832C828FEF8D838E838F83188619
:101A400029871A869B873C86CE010196BE016B5F73
:101A50007F4FAE01475F5F4F0E94762930924D1550
:101A600018C080914D158823A1F00E94185088233A
:101A700081F48091BA6487FF02C00E94DC3B80E061
:101A800090E060E070E040E050E00E947629109223
:101A90004D15A090BA640E947328882321F080918C
:101AA000F1758823C1F3F89410924B1510924A15E2
:101AB000789414E102C00E9434111150E0F7809133
:101AC0004E1590914F15A0915015B09151159093CE
:101AD000E5648093E46480914E1590914F15A09138
:101AE0005015B0915115CD01BB2797FDB095AB2F87
:101AF0009093E7648093E6640E9439558091146561
:101B0000882309F455C08091F175882309F47FC0BA
:101B1000F8941092F1758091ED759091EE75A09109
:101B2000EF75B091F07580934E1590934F15A0937B
:101B30005015B093511578940E941E61C090366480
:101B4000D0903764E0904E15F0904F1500915015ED
:101B50001091511520E031E040E050E00E94DE722B
:101B6000CA01B901A80197010AEE14E60E94DE69D4
:101B7000CB0177FD02C0BB2405C0909581959F4F96
:101B8000BB24B394BC01C816D9060CF4B6018EEF81
:101B900091E09C01629FC001639F900D729F900D28
:101BA000112490932165809320650E94825D30C04E
:101BB0008AEE94E60E94F46A1092216410922064E6
:101BC0001092236410922264109221651092206575
:101BD00060E070E080E090E00E94156160E070E0FD
:101BE00080E090E00E94296160E070E080E090E099
:101BF0000E94016180E00E947F5FF8941092ED7571
:101C00001092EE751092EF751092F0757894BB24D7
:101C100020E030E02330310511F12830310554F453
:101C20008091246590E0022E02C0959587950A94D4
:101C3000E2F70DC08091256590E028503040022EDB
:101C400002C0959587950A94E2F7285F3F4FF90106
:101C5000EC5EFA4980FF02C0308201C010822F5F23
:101C60003F4F2C303105B1F68091CF63682E6694DA
:101C700066947724C301837090708130910519F0C8
:101C8000029771F509C08091B4639091B563909308
:101C900023658093226524C06091CC637091CD63ED
:101CA00080E090E00E94087020E030E04AE754E4D1
:101CB0000E944A6E7B018C016091B8637091B96398
:101CC00080E090E00E9408709B01AC01C801B70160
:101CD0000E94506D0E947A6B709323656093226519
:101CE000B0921765BB2021F480912465877F03C0E3
:101CF00080912465886080932465DA2C84E195E6E0
:101D00000E944B0980912065909121656091226528
:101D1000709123650E94490FF6CCFC0186EF9FE984
:101D2000918380839383828395838483978386833F
:101D30009187808793878287958784870895E2E6D5
:101D4000F0E080818E7F8083808181608083089530
:101D5000DF93CF93CDB7DEB727970FB6F894DEBFEA
:101D60000FBECDBF982FDE011196EFE1F1E187E0C4
:101D700001900D928150E1F7809162008E7F8093F7
:101D80006200FE01E90FF11D81818FB9779BFECFC3
:101D90009FB11FB8779BFECF2FB180916200816009
:101DA0008093620030E054E0369527955A95E1F72C
:101DB000892F90E044E0880F991F4A95E1F7282B7E
:101DC000392BC90127960FB6F894DEBF0FBECDBFE1
:101DD000CF91DF910895EF92FF921F93DF93CF93FE
:101DE000CDB7DEB765970FB6F894DEBF0FBECDBF97
:101DF000DE011196E6E2F1E187E001900D9281505B
:101E0000E1F788E0E82EF12CEC0EFD1E10E0812FAA
:101E10000E94A80EF701819391937F011F5F1730F5
:101E2000B1F7DE01119626E934E6BD01AE01485F47
:101E30005F4FED91F0E0EE0FFF1FE60FF71F878178
:101E40009085F901819391939F01A417B50789F7B4
:101E5000A6E0B5E6E6E9F4E68EE001900D92815049
:101E6000E1F765960FB6F894DEBF0FBECDBFCF91F8
:101E7000DF911F91FF90EF900895FC0188E999EFA1
:101E80009183808393838283089508959598959A8A
:101E90000895EF92FF920F931F938C017B01959809
:101EA00080E30E94313A812F0E94313A802F82953F
:101EB000807F0E94313A959A959881E30E94313A49
:101EC0008F2D0E94313A8E2D8295807F0E94313A6B
:101ED000959A1F910F91FF90EF9008956091521580
:101EE00070915315809154159091551508956093F4
:101EF000521570935315809354159093551508956A
:101F00008F929F92AF92BF92CF92DF92EF92FF9209
:101F10000F931F93CF93DF935B016C01EA0120E8DD
:101F200031E541E050E00E94BC7279018A01B901BB
:101F300080E090E020E831E541E050E00E947672D8
:101F4000A61AB70AC80AD90AC70165EB75E00E944C
:101F50009572CB0125EB35E0A901649F9001659F47
:101F6000300D749F300D1124A701421B530B9A01B1
:101F700081519E4F880F991F880F991F99838883DD
:101F800051E02E36350710F461E018C02E5631406E
:101F900001969983888341E02D36340770F02D56E1
:101FA000314001969983888351E02D36350728F01A
:101FB0002D56314001969983888360E041E042309C
:101FC00031F4662311F48CE10CC08DE10AC0483075
:101FD00018F440FD05C002C040FF02C08EE101C000
:101FE0008FE190E0542F5F5F2817390720F0281BFE
:101FF000390B452FE4CF4A83822F8F5F8B83C60135
:10200000B50120E13EE040E050E00E94BC722C832C
:1020100030E040E050E0CA01B90120E13EE040E09C
:1020200050E00E94767286017501E61AF70A080BE5
:10203000190BC801B7012CE330E040E050E00E94EA
:10204000BC722D838CE3289F90011124442737FD17
:102050004095542FE21AF30A040B150BEE82DF9120
:10206000CF911F910F91FF90EF90DF90CF90BF9095
:10207000AF909F908F90089589E490E160E070E0C8
:102080000E94161148EE53E060E070E00E94741068
:102090000895209152153091531540915415509147
:1020A00055152F5F3F4F4F4F5F4F20935215309381
:1020B0005315409354155093551548EE53E060E086
:1020C00070E00E94741008958530910560F4FC0161
:1020D00023E0EE0FFF1F2A95E1F7E80FF91FEA5AF8
:1020E000FA4E108617820895CF93DF9385309105BD
:1020F00078F5EC01E3E0CC0FDD1FEA95E1F7C80FBE
:10210000D91FCA5ADA4E8F819885892B09F1475F0A
:102110005F4F6F4F7F4FCB01BA012AE030E040E0C4
:1021200050E00E94BC728091831590918415A0911B
:102130008515B0918615820F931FA41FB51F898343
:102140009A83AB83BC8388818E7F888381E001C0C2
:1021500080E0DF91CF9108958530910510F080E007
:102160000895FC01A3E0EE0FFF1FAA95E1F7E80F29
:10217000F91FEA5AFA4E80818160808381E00895D8
:102180008530910588F4FC01B3E0EE0FFF1FBA958E
:10219000E1F7E80FF91FEA5AFA4E87819085892BFB
:1021A00019F080818170089580E008959C01853048
:1021B000910588F4FC0183E0EE0FFF1F8A95E1F79B
:1021C000E20FF31FEA5AFA4E87819085892B19F0A6
:1021D0002581368102C020E030E0C90108959C01CC
:1021E0008530910590F4FC0193E0EE0FFF1F9A9566
:1021F000E1F7E20FF31FEA5AFA4E87819085892BA7
:1022000021F07683658381E0089580E0089500974A
:1022100049F08655954169E070E00E9495726530FD
:10222000710510F06FEF7FEFCB0108959C010097CF
:10223000B9F0E6E5F5E110C087819085892B59F466
:10224000308727837683658381E08083CF010E9476
:1022500007119C0107C0399685E1E338F80761F75B
:102260002FEF3FEFC90108950F931F93CF93DF9393
:102270008091831590918415A0918515B091861554
:102280000196A11DB11D8093831590938415A09391
:102290008515B0938615C6E5D5E121C00F81188557
:1022A00001151105D9F0688160FD18C029813A81B6
:1022B0004B815C818091831590918415A091851547
:1022C000B0918615281739074A075B0739F4616012
:1022D0006883CE010E940711F8010995299685E1CE
:1022E000C338D807D9F6DF91CF911F910F91089588
:1022F000DF93CF9300D0CDB7DEB7DC010097A1F11B
:102300006230710588F1ED91FC911197660F771F8E
:1023100080E090E016962D913D914D915C9119973A
:10232000620F731F841F951F0190F081E02DAE0195
:102330004F5F5F4F22E030E009958823A9F09A8132
:1023400080E0298130E0282B392B2115310571F0EF
:102350008FEF273F380741F0C9014096079720F0DB
:102360008FEF283F380710F020E030E0C9010F90D0
:102370000F90CF91DF9108952F923F924F925F92ED
:102380006F927F928F929F92AF92BF92CF92DF9285
:10239000EF92FF920F931F93DF93CF9300D0CDB7AF
:1023A000DEB74C01009709F44DC06230710508F4A6
:1023B00049C0DC0116964D905D906D907C90199708
:1023C0001E010894211C311C660F771F6B01EE243F
:1023D000FF24C40CD51CE61CF71CD401ED91FC9124
:1023E0000190F081E02DC701B601A10122E030E0AB
:1023F0000995882339F1BA80AA248981082F10E031
:102400000A291B2901151105F9F0C8014096089702
:10241000C8F0BFEF083F1B0710F000E010E0198282
:102420001A82D401ED91FC910480F581E02DC70161
:10243000B601A10122E030E00995B80101151105AE
:1024400019F602C080E001C081E00F900F90CF919B
:10245000DF911F910F91FF90EF90DF90CF90BF9091
:10246000AF909F908F907F906F905F904F903F9034
:102470002F9008952F923F924F925F926F927F928A
:102480008F929F92AF92BF92CF92DF92EF92FF9284
:102490000F931F93DF93CF93CDB7DEB72C970FB673
:1024A000F894DEBF0FBECDBF3C012B011A0100978F
:1024B00009F494C0DC01ED91FC91119720813181E8
:1024C0003C872B87448155815A87498716968D9181
:1024D0009D910D90BC91A02D8D839E83AF83B88775
:1024E000F30182859385A485B585B695A7959795C3
:1024F00087959C838B834101CC24DD24AA24BB24B3
:1025000043C0C501880F991F7C0100E010E02D81B8
:102510003E814F815885E20EF31E041F151FC8012E
:10252000B701AE014F5F5F4F22E030E0AB85BC8565
:10253000FD010995882309F451C08981882309F593
:102540008A818823F1F48214930421F4BFEFB983C4
:10255000BA8302C0C982DA82C801B701AE014F5FF7
:102560005F4F22E030E0E985FA850995882391F0F4
:102570000894810891088114910411F465010CC03C
:1025800065010894A11CB11C2B813C81A216B306E5
:1025900008F4B7CF8928F1F432E04316510400F172
:1025A000C982DA82440C551CB20180E090E02D8192
:1025B0003E814F815885620F731F841F951FAE01A6
:1025C0004F5F5F4F22E030E0A985BA85FD01099594
:1025D000882331F4C301B6010E94BC11CC24DD2450
:1025E000C6012C960FB6F894DEBF0FBECDBFCF91BB
:1025F000DF911F910F91FF90EF90DF90CF90BF90F0
:10260000AF909F908F907F906F905F904F903F9092
:102610002F900895EF92FF920F931F93DF93CF9324
:10262000CDB7DEB760970FB6F894DEBF0FBECDBF53
:102630008C016230710510F480E034C0009729F4F9
:1026400040E050E060E070E018C06250704080E010
:1026500090E0D80150962D913C91519740E050E088
:102660000E947672AB01BC01F80186899789A08D22
:10267000B18D480F591F6A1F7B1FD801ED91FC9146
:10268000119750962D913C9151970680F781E02D3E
:10269000CB01BA01AE014F5F5F4F0BE817E1EE24AB
:1026A000FF24099560960FB6F894DEBF0FBECDBF2C
:1026B000CF91DF911F910F91FF90EF9008952F928E
:1026C0003F924F925F926F927F928F929F92AF92C2
:1026D000BF92CF92DF92EF92FF920F931F93DF93FF
:1026E000CF93CDB7DEB72A970FB6F894DEBF0FBEF3
:1026F000CDBF2C017C836B831A01009709F406C1BE
:10270000672B09F403C14115510509F4FFC0DC0131
:102710009D96AD90BD90CD90DC90D09795962D91E3
:102720003D914D915C919897C101A0E0B0E08A0D78
:102730009B1DAC1DBD1D281739074A075B0728F4F0
:1027400019012A183B0809F4E4C0D201ED91FC916B
:102750001197208931893A832983D1968D919C9153
:10276000D2979A878987390188249924892BD9F5AA
:1027700093960D90BC91A02DBA87A987AB2B39F405
:10278000A114B104C104D10409F4C3C0BFC0A11491
:10279000B104C104D10439F1860175018827992754
:1027A000DC0186199709A809B9098D839E83AF8337
:1027B000B88714C0D2018D919C9169857A850E9459
:1027C00078119A878987892B09F4A0C08D819E8111
:1027D000AF81B885E80EF91E0A1F1B1FE614F70427
:1027E0000805190538F7C601B501A40193010E9437
:1027F000BC725B016101D201ED90FC90E114F10427
:1028000009F1E985FA85E230F105E0F03297BF0180
:1028100080E090E03296FA87E987D70150962D91B3
:102820003C91519740E050E00E9476729B01AC01D0
:10283000F70186899789A08DB18D280F391F4A1F0E
:102840005B1F04C020E030E040E050E009811A81C5
:102850000A191B09C016D10608F48601D701ED91AB
:10286000FC91C501A0E0B0E0280F391F4A1F5B1F93
:102870000190F081E02DCA01B9014B815C81980182
:102880000995882361F1C01AD10AC801A0E0B0E01F
:10289000F20125A536A547A550A9280F391F4A1FC3
:1028A0005B1FD2019D962D933D934D935C93D097E2
:1028B000C8018A0D9B1DE981FA818E179F07A8F038
:1028C0008D919C9169857A850E9478119A87898774
:1028D000892B49F4D201D2961C921E92D197A10164
:1028E0004C195D0918C0AA24BB2429853A85F20138
:1028F00032AB21ABC114D10439F08B819C81800FA4
:10290000911F9C838B8377CFA10105C04FEF5FEFB1
:1029100002C040E050E0CA012A960FB6F894DEBF2C
:102920000FBECDBFCF91DF911F910F91FF90EF9020
:10293000DF90CF90BF90AF909F908F907F906F90DF
:102940005F904F903F902F900895FC01009711F4F5
:1029500080E0089583A194A196A785A710AA17A641
:1029600081E00895CF92DF92EF92FF920F931F9331
:10297000CF93DF93EC016A017B018901F90160814A
:102980007181828193818096938382838881853E41
:1029900009F4B9C0882309F4B6C0FB0187A190A54A
:1029A000A1A5B2A50097A105B10521F4C7A2D0A6A3
:1029B000E1A6F2A66115710509F4A7C0209709F4F4
:1029C000A4C09881992309F4A0C08B858F3041F56C
:1029D000892F90E08F7390702DE030E0829FA001EE
:1029E000839F500D929F500D11244D505040ADE2E9
:1029F000B1E19B01240F351F0FC08D91FE01E80F3F
:102A0000F11D8081F90181939F014F5F5F4FF1E1DB
:102A1000AA33BF0709F477C04F31510570F373C073
:102A2000FB0180818823A9F5AE01DE0180E090E002
:102A3000282F3C91303251F0FB01E80FF91F308311
:102A40002F5F019611968830910591F7FB018081E7
:102A5000853011F485EE808388858032B1F0FB01EA
:102A6000E20FF11D8EE28083822F8F5F2C5FFA01CF
:102A70009085903249F0FB01E80FF11D90838F5F44
:102A80004F5F5F4F821799F7282FFB01E20FF11D6F
:102A900010828B85FB0180A39B8D80E02A8D30E026
:102AA000822B932B92A381A32D8D30E040E050E048
:102AB000542F432F322F22278E8D90E0A0E0B0E0DC
:102AC000DC0199278827282B392B4A2B5B2B8C8DEF
:102AD00090E0A0E0B0E0282B392B4A2B5B2B8F8DA8
:102AE00090E0A0E0B0E0B82FAA2799278827282BEC
:102AF000392B4A2B5B2B23A334A345A356A381E098
:102B0000F801848302C081E001C080E0DF91CF91B1
:102B10001F910F91FF90EF90DF90CF9008957F92DB
:102B20008F929F92AF92BF92CF92DF92EF92FF92DD
:102B30000F931F93DF93CF93CDB7DEB72C970FB6CC
:102B4000F894DEBF0FBECDBF6C015B01009709F4A6
:102B500053C06115710509F44FC0DB019796ED90E4
:102B6000FD900D911C919A97E114F1040105110556
:102B700009F442C04E010894811C911CB5EE7B2ED5
:102B8000D601ED91FC910190F081E02DC801B701D3
:102B9000A4012CE030E00995882371F17982D601F7
:102BA000ED91FC910480F581E02DC801B701A401ED
:102BB0002CE030E009958823F9F08C858F3049F4BA
:102BC00080E290E0A0E0B0E0E80EF91E0A1F1B1FB3
:102BD000D7CFD50191966D917C9192976115710532
:102BE00039F0C6010E94BC1120E030E0882311F0CA
:102BF00021E030E0822F01C080E02C960FB6F894DF
:102C0000DEBF0FBECDBFCF91DF911F910F91FF901F
:102C1000EF90DF90CF90BF90AF909F908F907F907C
:102C2000089508950895FC01009729F420E030E00C
:102C300040E050E014C06285738584859585969543
:102C400087957795679562507040804090402089C5
:102C5000318940E050E00E9476729B01AC01B901DD
:102C6000CA0108952F923F924F925F926F927F9286
:102C70008F929F92AF92BF92CF92DF92EF92FF928C
:102C80000F931F93DF93CF93CDB7DEB7A5970FB602
:102C9000F894DEBF0FBECDBF9DA38CA3892B09F492
:102CA0005BC01A82198280E28B83ACA1BDA116960B
:102CB0004D905D906D907C9019971A968D909D9097
:102CC000AD90BC901D9734C0BEEF8B16BFEF9B0636
:102CD000B0E0AB06B0E0BB0628F0BEEF2B2EBFEF96
:102CE0003B2E01C01401ACA1BDA1ED91FC9102806D
:102CF000F381E02DC301B201AE014C5F5F4F20E2D2
:102D000030E08101ABECEA2EA6E1FA2E6E010894C8
:102D1000C11CD11C09958823F9F0C101A0E0B0E0E5
:102D2000480E591E6A1E7B1E881A990AAA0ABB0AF7
:102D300081149104A104B10439F6ECA1FDA16089CC
:102D4000718980E090E029813A8140E050E00E9462
:102D500076729B01AC0104C020E030E040E050E01E
:102D6000B901CA01A5960FB6F894DEBF0FBECDBF5C
:102D7000CF91DF911F910F91FF90EF90DF90CF9057
:102D8000BF90AF909F908F907F906F905F904F908B
:102D90003F902F900895482FF9015281282F392F05
:102DA000C901DC0110C011963C91119720E08C9173
:102DB00090E0822B932B892B29F4808191810196BD
:102DC0009183808312968A2F841B851760F381E09C
:102DD00008950F931F93CF93DF938C0183E390E0CB
:102DE0000E943073FC010097A9F0EC012296D801F3
:102DF0008BE20D9009928150E1F71182108215A6A5
:102E000016A617A610AAD80191968D919C9192971B
:102E100092AB81ABCF01DF91CF911F910F910895BC
:102E2000DC011296FB018BE201900D928150E1F7DB
:102E300008950F931F93CF93DF938C01EB010097BD
:102E400021F16115710509F188A184FF1EC081E39C
:102E500090E00E943073FC019C010097C1F0AC012E
:102E60004E5F5F4FBE018BE2DB010D90BD01DA01C9
:102E70000D92AD018150C1F71183008389A19AA100
:102E800096A785A710AA17A602C020E030E0C901C6
:102E9000DF91CF911F910F9108950F931F93CF93BF
:102EA000DF938C01EB01009731F16115710519F188
:102EB00088A184FD20C083E390E00E943073FC0170
:102EC0009C010097D1F0AC014E5F5F4FBE018BE2D9
:102ED000DB010D90BD01DA010D92AD018150C1F70A
:102EE0001183008315A616A617A610AA89A19AA178
:102EF00092AB81AB02C020E030E0C901DF91CF91FD
:102F00001F910F9108959B01BC016E5F7F4FC90116
:102F10000E9428750895FC0180E1DF011D928A95C9
:102F2000E9F780E190E008952F923F924F925F92EF
:102F30006F927F928F929F92AF92BF92CF92DF92C9
:102F4000EF92FF920F931F93DF93CF93CDB7DEB72E
:102F5000A7970FB6F894DEBF0FBECDBF4C017FA37D
:102F60006EA3009709F4B9C06115710509F4B5C0E5
:102F7000DC012D903C901197F101408851889D967D
:102F8000AD90BC909E979F966D907C90D0978BE271
:102F9000DB011D928A95E9F7FE01319685E0DF019C
:102FA0001D928A95E9F7A114B10409F07EC0F101E0
:102FB0004688578882899389481A590A76C06301DE
:102FC000EE24FF24A114B10441F4D10152966D9175
:102FD0007D918D919C9155972EC0F40100811181B6
:102FE0000115110511F1F2E0AF16B104F0F02EEF6A
:102FF0003FEFA20EB31EB50180E090E0A2E0B0E08A
:10300000AA0EBB1EF8012089318940E050E00E94E1
:1030100076729B01AC01F80186899789A08DB18DEC
:10302000280F391F4A1F5B1F04C020E030E040E03A
:1030300050E0CA01B9016C0D7D1D8E1D9F1D1C82C3
:103040001B82D401ED91FC910190F081E02D820171
:10305000061917090280F381E02DAE014A5F5F4F28
:1030600020E230E0A2EBEA2EA4E1FA2E6E010894F1
:10307000C11CD11C0995882381F18B819C81680E2C
:10308000791E64147504A8F0F40180819181B50162
:103090000E9478115C0166247724009751F4D401D2
:1030A0009396AD90BC90949708C0EEA1FFA1FA83CF
:1030B000E9838D81882309F482CFD4019E96BC9246
:1030C000AE929D97D0967C926E929F97EEA1FFA1B3
:1030D0008081882319F081E001C080E0A7960FB6B7
:1030E000F894DEBF0FBECDBFCF91DF911F910F913E
:1030F000FF90EF90DF90CF90BF90AF909F908F9018
:103100007F906F905F904F903F902F9008952F92F7
:103110003F924F925F926F927F928F929F92AF9267
:10312000BF92CF92DF92EF92FF920F931F93DF93A4
:10313000CF9300D00F92CDB7DEB71C019B01009753
:1031400009F4D2C04115510509F4CEC0FA0101902D
:103150000020E9F7E41BF50BCF010B966DE070E062
:103160000E949572862F8F5F8B83D90193964D9025
:103170005C9094974114510451F0662477244301E4
:10318000AA24BB246501EE24FF2487010BC0F101B2
:10319000E288F3880489158966887788808C918C09
:1031A000570168011A82E614F7040805190509F0A9
:1031B0006EC04114510409F497C0E114F1040105F3
:1031C000110589F1C101B2010E947811009751F5F2
:1031D000C101B20141E050E00E943A128C01009717
:1031E00009F482C002501040B80180E090E00E5F08
:1031F0001F4FD10150962D913C91519740E050E0E6
:103200000E9476725B016C01F10186899789A08D1D
:10321000B18DA80EB91ECA1EDB1EC101B8010E94E5
:103220000A1365C02C01F2E04F16510420F4EE247D
:10323000FF2487011DC02EEF3FEF420E531EB20147
:1032400080E090E0A2E0B0E04A0E5B1EF101208930
:10325000318940E050E00E9476727B018C01F101DF
:1032600086899789A08DB18DE80EF91E0A1F1B1F54
:10327000D10150968D919C9151973C0188249924BD
:103280006E0C7F1C801E911E570168011A82D101AD
:10329000ED91FC910190F081E02DC801B701AE01E4
:1032A0004F5F5F4F21E030E009958823E9F0898185
:1032B000853E11F0882379F4BA81BF5FBA83EB8130
:1032C000BE17A8F480E290E0A0E0B0E0E80EF91E9E
:1032D0000A1F1B1F68CF80E290E0A0E0B0E0E80E7C
:1032E000F91E0A1F1B1F5CCFAA24BB246501B50170
:1032F000C6010F900F900F90CF91DF911F910F910A
:10330000FF90EF90DF90CF90BF90AF909F908F9005
:103310007F906F905F904F903F902F9008953F92D5
:103320004F925F926F927F928F929F92AF92BF92D5
:10333000CF92DF92EF92FF920F931F93DF93CF9381
:10334000CDB7DEB7A0970FB6F894DEBF0FBECDBFE6
:10335000FC018B01009709F42EC16115710509F478
:103360002AC10190F081E02D44805580DB019796C1
:10337000AD90BD90CD90DC909A97E62E912EFB01FA
:1033800001900020E9F73197FE2EF61A8F2D90E07C
:103390000C966DE070E00E94A972762ECE01019627
:1033A00060E270E04BE050E00E940275C8016EE2FE
:1033B00070E00E944C75FC010097E1F09C012F5FCA
:1033C0003F4F81818823B1F0D9010D900020E9F7AA
:1033D0001197A21BB30B8A2F8095F80EBE01675F71
:1033E0007F4F4A2FA43008F043E0CB01B90150E0F1
:1033F0000E94E774CE010196B8E0BF1588F06E2DEB
:10340000792D4F2D50E00E94E774F80180818E32B3
:1034100031F581818E3209F482818823F9F01FC051
:10342000DC018E2D992D9C01F90188E001900D920F
:103430008150E1F7D80191968C91982F92959F70C9
:10344000803A10F4905D01C09F598F708A3010F45B
:10345000805D01C08F599F83888701C0772489814F
:10346000853E11F485E089836CE0862E912C8C0ECC
:103470009D1E85E1F40111928A95E9F7D801909695
:103480008C9190978C8791968C91919792969C9124
:1034900092978B8F9C8F93968D919D910D90BC915F
:1034A000A02D8D8F292F3A2F4B2F55272E8F9D0121
:1034B000442755272F8F8B2F9927AA27BB2788A30F
:1034C000672D70E080E090E025E0660F771F881F91
:1034D000991F2A95D1F76A0D7B1D8C1D9D1DAE018C
:1034E0004F5F5F4F20E230E0F2010995882309F435
:1034F00062C0E980FE01329694018E2D8695E79494
:10350000EE24E794E82A8191E80EE217F307A9F781
:10351000F72C4E010894811C911C8DE0382EBFE0E1
:103520006B2E44C0C4016FEF70E040E250E00E9497
:103530000275F39CD00111241D97A00FB11F91E0DB
:10354000F401E90FF11D8C918083892F8F5FF401C5
:10355000E80FF11D10829E5F9B3019F09A3121F423
:1035600002C09EE001C09CE18C91882321F09F3134
:1035700010F41196E5CFF982F71419F48F2D8064B9
:1035800089836C86EE861D861B8E1C8EC601B50156
:10359000A40120E230E0F201099580E290E0A0E091
:1035A000B0E0A80EB91ECA1EDB1EFA94FF2009F077
:1035B000B9CF81E001C080E0A0960FB6F894DEBFDD
:1035C0000FBECDBFCF91DF911F910F91FF90EF9074
:1035D000DF90CF90BF90AF909F908F907F906F9033
:1035E0005F904F903F9008957F928F929F92AF92FD
:1035F000BF92CF92DF92EF92FF920F931F93CF93E0
:10360000DF936C015B01EA01009709F49DC061152D
:10361000710509F499C0FB018081882309F494C0E5
:103620004115510509F490C0842E7D2EC601BE01BE
:103630000E949417882379F0C501682D772D0E9488
:103640001F75009799F7F60183A194A196A785A706
:1036500010AA17A679C0F601E080F180C70160E0EA
:1036600070E041E050E00E943A128C01009709F4AA
:103670006BC0C701B8010E940A138BE2FE011192D0
:103680008A95E9F780E188A302501040B80180E0F4
:1036900090E00E5F1F4FF7012089318940E050E034
:1036A0000E947672F70126893789408D518D260F49
:1036B000371F481F591F2FA338A749A75AA77EE2D3
:1036C000972E98821AA309A3C701BE010E948F19E1
:1036D0008823B1F18FA198A5A9A5BAA58096A11DAF
:1036E000B11D8FA398A7A9A7BAA79982F60183A1B4
:1036F00094A19AA389A3C701BE010E948F198823B0
:10370000F9F0882D972DB5014FE150E00E943D75ED
:103710001AA309A3C701B601AE010E9487186FA3BF
:1037200078A789A79AA7611571058105910541F0D0
:10373000C701BE010E948F19882311F081E005C0E6
:10374000C701B8010E94BC1180E0DF91CF911F91A9
:103750000F91FF90EF90DF90CF90BF90AF909F9030
:103760008F907F900895AF92BF92CF92DF92EF92A9
:10377000FF920F931F93CF93DF938C017B01EA019C
:10378000009709F448C06115710509F444C0FB01B4
:103790008081882309F43FC041155105E1F1B42E21
:1037A000AD2EC801BE010E949417882379F0C7018D
:1037B0006B2D7A2D0E941F75009799F7F80183A150
:1037C00094A196A785A710AA17A625C0F801C080C6
:1037D000D1808BE2FE0111928A95E9F78B2D9A2D0B
:1037E000B7014FE150E00E943D75C601B801AE013E
:1037F0000E9487186FA378A789A79AA761157105FA
:103800008105910541F0C601BE010E948F198823F0
:1038100019F081E001C080E0DF91CF911F910F91FD
:10382000FF90EF90DF90CF90BF90AF9008952F92D0
:103830003F924F925F926F927F928F929F92AF9240
:10384000BF92CF92DF92EF92FF920F931F93DF937D
:10385000CF93CDB7DEB72C970FB6F894DEBF0FBE6F
:10386000CDBF1C012A013B01009709F4FAC0DC011D
:1038700093968D909C909497ED91FC91808991897D
:103880008114910499F04B825C826D827E825C018E
:10389000CC24DD24EE24FF248701EA18FB080C0960
:1038A0001D09E986FA860B871C8720C04115510542
:1038B0006105710509F4BEC0E6CFD1018D919C91DF
:1038C000B4010E9478110097E9F0EB80FC800D8133
:1038D0001E8129853A854B855C85E20EF31E041F07
:1038E000151FEB82FC820D831E834C01860175013E
:1038F0008B819C81AD81BE81A816B906CA06DB0604
:10390000E0F2C9C0EF82F8865801C701D8017C01F6
:103910008D016B817C818D819E81A80197010E9420
:10392000BC726901B90180E090E02F813885A50162
:103930000E9476722B813C814D815E8162177307F4
:103940008407950718F40894C11CD11CD1018D91EE
:103950009C91B401A6010E943A12009709F481C01B
:103960008114910421F4F10194A383A34C01D101AA
:1039700095964D925D926D927C9298974114510468
:103980006104710421F494961C921E929397F101A4
:1039900081919191BF010E948F19882309F461C020
:1039A000411451046104710429F4F1018081918171
:1039B000B4013EC02B813C814D815E81E216F3064D
:1039C00004071507B8F1D1010D911C9101151105DE
:1039D00089F1B2E08B16910468F1C801B4010E942C
:1039E00078117C018FEF89838A83D801ED91FC9156
:1039F0001197880C991CB40180E090E016962D91E7
:103A00003D914D915C911997620F731F841F951F13
:103A10000480F581E02DAE014F5F5F4F22E030E082
:103A20000995882339F0E114F10421F0C801B701A8
:103A30000E94BC11F10185A596A5A7A5B0A94816BD
:103A400059066A067B0658F4D1019D964D925D9207
:103A50006D927C92D097D2961C921E92D19781E063
:103A600001C080E02C960FB6F894DEBF0FBECDBF2C
:103A7000CF91DF911F910F91FF90EF90DF90CF904A
:103A8000BF90AF909F908F907F906F905F904F907E
:103A90003F902F900895AF82F886580181149104C9
:103AA00009F437CF64CFCF92DF92EF92FF920F935A
:103AB0001F93CF93DF93EC016B01009709F445C08E
:103AC0006115710509F441C08DA59EA5AFA5B8A9E2
:103AD000413059F0413018F04230B9F50CC0FB01CB
:103AE000E080F1800281138113C0FB01E080F1804E
:103AF0000281138109C0FB01E080F1800281138102
:103B00008DA19EA1AFA1B8A5E80EF91E0A1F1B1F2B
:103B10008DA19EA1AFA1B8A58E159F05A007B107E5
:103B200038F4CE01B801A7010E94171C882369F060
:103B3000EDA6FEA60FA718AB1AAA19AAF601E082F5
:103B4000F1820283138381E001C080E0DF91CF9195
:103B50001F910F91FF90EF90DF90CF9008952F92DB
:103B60003F924F925F926F927F928F929F92AF920D
:103B7000BF92CF92DF92EF92FF920F931F93DF934A
:103B8000CF9300D000D000D0CDB7DEB76C011B01C1
:103B90005C834B83009709F449C16115710509F4F1
:103BA00045C1452B09F442C1DC019D964D905D90C5
:103BB0006D907C90D09795968D919D910D90BC9134
:103BC000A02D84159505A605B70508F42FC1D601CB
:103BD000ED91FC911197208931893A832983D196FF
:103BE0008D919C91D2979E838D834901AA24BB24F9
:103BF000892B09F053C093960D90BC91A02DBE83E4
:103C0000AD83AB2BA9F4411451046104710409F094
:103C10000DC1CF0160E070E041E050E00E943A1237
:103C20009E838D83F60194A383A3892B09F4FEC0A0
:103C3000D6019D96ED90FD900D911C91D097E114C9
:103C4000F1040105110529F529C0E818F9080A0948
:103C50001B09F601808191816D817E810E9478111E
:103C6000009719F09E838D8314C0E114F1040105BF
:103C7000110509F0DBC0D6018D919C916D817E818B
:103C800041E050E00E943A12009709F4CFC09E83B1
:103C90008D83E814F9040A051B05B8F6C301B201C7
:103CA000A50194010E94BC724B01AB80BC80F6015F
:103CB000E080F180E114F10419F12D813E81223080
:103CC0003105F0F022503040B90180E090E02E5FE5
:103CD0003F4F3E832D83D70150962D913C915197B4
:103CE00040E050E00E9476729B01AC01F7018689AA
:103CF0009789A08DB18D280F391F4A1F5B1F04C003
:103D000020E030E040E050E009811A8108191909EB
:103D1000A016B10608F48501D701ED91FC91C4010C
:103D2000A0E0B0E0280F391F4A1F5B1F0480F58117
:103D3000E02DCA01B901A10198010995882309F470
:103D40004BC0A01AB10AC801A0E0B0E0F60125A559
:103D500036A547A550A9280F391F4A1F5B1FD6015A
:103D60009D962D933D934D935C93D097C801880DFC
:103D7000991DE981FA818E179F0708F18D919C9119
:103D80006D817E810E947811009719F09E838D834A
:103D900014C0A114B10459F0D6018D919C916D818C
:103DA0007E8141E050E00E943A12009721F4F60132
:103DB00012AA11AA11C09E838D8388249924ED81B3
:103DC000FE81D601D296FC93EE93D197A114B10453
:103DD00019F0200E311E6BCFF60185A596A5A7A57B
:103DE000B0A9E5A0F6A007A110A5E816F9060A07F4
:103DF0001B07B8F485A396A3A7A3B0A781919191BF
:103E0000BF010E948F19882361F4D6019D96AD9061
:103E1000BC909E97AE18BF08F601E5A6F6A607A7C8
:103E200010AB4B815C814A195B0902C04FEF5FEF19
:103E3000CA0126960FB6F894DEBF0FBECDBFCF9154
:103E4000DF911F910F91FF90EF90DF90CF90BF9087
:103E5000AF909F908F907F906F905F904F903F902A
:103E60002F900895009711F00E94DD730895009738
:103E700011F00E94DD730895009711F00E94DD7328
:103E800008952F923F924F925F926F927F928F92FE
:103E90009F92AF92BF92CF92DF92EF92FF920F93D9
:103EA0001F93DF93CF93CDB7DEB7AE970FB6F894DD
:103EB000DEBF0FBECDBF6C01009709F490C1DC01DD
:103EC00014968D919C911597892B09F488C11696AB
:103ED0008D919C911797892B09F481C18AE190E01B
:103EE0000E9430738DA79EA7EDA5FEA5FCA7EBA7AA
:103EF000309709F476C18AE1DF011D928A95E9F7CE
:103F0000EDA5FEA5D182C082D60119962D913D91D5
:103F10004D915C911C97E9E0220F331F441F551F00
:103F2000EA95D1F72AA33BA34CA35DA3CA01B9012B
:103F3000655F7F4F8F4F9F4FED91FC91AE014F5FBB
:103F40005F4F29E130E00995882309F465C1A98014
:103F50003A81BB81B8A71C815D810E814F81688445
:103F600079848A849D8580E02C85E22FF0E0E82B1F
:103F7000F92B9E888F89288DE98C309709F44CC1E4
:103F800090E0A0E0B0E02224382E492E5A2E822F55
:103F900090E0A0E0B0E0DC0199278827282A392AA0
:103FA0004A2A5B2A892D90E0A0E0B0E0282A392A2D
:103FB0004A2A5B2A8E2D90E0A0E0B0E0B82FAA2715
:103FC00099278827282A392A4A2A5B2A211431046A
:103FD0004104510469F4982D80E0672D70E0682B4E
:103FE000792B6115710509F417C11B01442455246F
:103FF000932F80E02A2D30E0282B392B3FA32EA3CE
:10400000962D80E0A42FB0E0A82BB92BBAA7A9A7C2
:10401000952F80E0212F30E0822B932B9C0140E0F4
:1040200050E02E8F3F8F48A359A3BF0180E090E05E
:10403000202F30E040E050E00E9476726A8F7B8F44
:104040008C8F9D8F820171018E8D9F8DA8A1B9A14A
:10405000E81AF90A0A0B1B0B2A8D3B8D4C8D5D8DDE
:10406000E21AF30A040B150B8EA19FA1019729A553
:104070003AA5A5E0220F331FAA95E1F7820F931FFF
:104080006EA17FA10E94957280E090E0E61AF70A87
:10409000080B190B88A5282F30E040E050E0C8013C
:1040A000B7010E94BC7239014A01D401C301855F86
:1040B0009F40A040B0408050904FA040B04008F0DA
:1040C000ABC086E0D60118968C938DA59EA502966E
:1040D000FC0188E1DF011D928A95E9F7EEA1FFA1BD
:1040E0005F01CC24DD24C201B101A60195010E942B
:1040F0007672ADA5BEA512966D937D938D939C931C
:104100001597C601B5012E8D3F8D48A159A10E947A
:1041100076727B018C012AA13BA14CA15DA1E20E2C
:10412000F31E041F151FADA5BEA51696ED92FD92B8
:104130000D931C93199722E030E040E050E0620EAE
:10414000731E841E951E660C771C881C991C1A967B
:104150006D927D928D929C921D97EEA1FFA11F966C
:10416000FC93EE931E97F8A58F2F90E02EA13FA110
:10417000AC01249FC001259F900D349F900D112408
:1041800051969C938E9350976A8D7B8D8C8D9D8DCF
:10419000A60195010E9476726E0D7F1D801F911FF2
:1041A000ADA5BEA552966D937D938D939C93559727
:1041B000E9A5FAA59F0140E050E0E5E0220F331F9A
:1041C000441F551FEA95D1F7620F731F841F951F77
:1041D00056966D937D938D939C93599702C01CA620
:1041E0001BA68BA59CA5AE960FB6F894DEBF0FBE9E
:1041F000CDBFCF91DF911F910F91FF90EF90DF9096
:10420000CF90BF90AF909F908F907F906F905F9076
:104210004F903F902F9008958DA59EA50E94DD732D
:10422000DECF2F923F924F925F926F927F928F924A
:104230009F92AF92BF92CF92DF92EF92FF920F9335
:104240001F93CF93DF931C017B015A01009709F460
:104250008DC06115710509F489C0FB018081882337
:1042600009F484C04115510509F480C08F3219F456
:104270000894E11CF11C8BE2F50111928A95E9F793
:1042800080E1F50180A32501F7018081882309F4ED
:104290006FC0C101B5010E9419174C01009709F4C4
:1042A00065C0C7016FE270E00E941475009739F095
:1042B000482F4E193C010894611C711C44C0F70141
:1042C00001900020E9F731974E2F4E193701640E07
:1042D000711C39C0F701E00FF11F808190E00E944E
:1042E0007D742881892B29F0822F90E00E948374AD
:1042F00004C0822F90E00E948B7488830F5F1F4F51
:1043000021960C151D0534F3F20101900020E9F708
:104310003197E419F509EC15FD05B9F4C701B201AF
:10432000A6010E942F75009781F4C4010E94321FDC
:10433000CE0CDF1CF60180818823D1F0F50180A12D
:1043400084FD0DC013C0C42EDD24C401B5010E943C
:104350009417882339F0E20100E010E0D2CF730116
:1043600088249924C4010E94321F8ECF80E001C0AE
:1043700081E0DF91CF911F910F91FF90EF90DF903F
:10438000CF90BF90AF909F908F907F906F905F90F5
:104390004F903F902F900895009711F480E008957A
:1043A0000E94DD7381E008958F929F92AF92BF9239
:1043B000CF92DF92EF92FF920F93DF93CF93CDB71F
:1043C000DEB760970FB6F894DEBF0FBECDBF7C019D
:1043D0006B015A014901009709F49EC061157105EE
:1043E00009F49AC004300CF097C007FD1DC0602F7F
:1043F000772767FD7095A4E0660F771FAA95E1F710
:1044000062547E4F882777FD8095982FAE014F5FCD
:104410005F4F20E130E0F7010995882309F47CC063
:104420008D81882309F478C081E190E00E94307387
:10443000FC01BC01009709F471C081E1DF011D920C
:104440008A95E9F7F182E082D382C282B582A482A2
:104450009782868207FD5DC08D8180872A8530E046
:1044600040E050E0542F432F322F22278B8590E0DD
:10447000A0E0B0E0DC0199278827282B392B4A2BB4
:104480005B2B898590E0A0E0B0E0282B392B4A2BEC
:104490005B2B8C8590E0A0E0B0E0B82FAA2799278D
:1044A0008827282B392B4A2B5B2BFB01218732874E
:1044B000438754872E8530E040E050E0542F432F4F
:1044C000322F22278F8590E0A0E0B0E0DC01992711
:1044D0008827282B392B4A2B5B2B8D8590E0A0E079
:1044E000B0E0282B392B4A2B5B2B888990E0A0E089
:1044F000B0E0B82FAA2799278827282B392B4A2BD9
:104500005B2BDB011D962D933D934D935C93509750
:1045100005C08FEF808702C060E070E0CB0160963D
:104520000FB6F894DEBF0FBECDBFCF91DF910F91D4
:10453000FF90EF90DF90CF90BF90AF909F908F90C3
:1045400008958091891590918A15089580918B1511
:1045500090918C150895EF92FF920F931F93CF9334
:10456000DF93EC018B017A010BC0C701B8010E94F7
:104570001F75009729F4CE010E94A51481E006C0A2
:10458000CE01B7010E949417882379F7DF91CF916C
:104590001F910F91FF90EF9008950F931F93DF935A
:1045A000CF93CDB7DEB7AB970FB6F894DEBF0FBE93
:1045B000CDBF8E010F5F1F4FA8010E94AB22882341
:1045C00019F420E030E008C08091891590918A1597
:1045D000B8010E944D179C01C901AB960FB6F89423
:1045E000DEBF0FBECDBFCF91DF911F910F91089518
:1045F00080918B1590918C150E94321F80918915A6
:1046000090918A150E943C1F809187159091881582
:104610000E94CC2110928C1510928B1510928A1545
:1046200010928915109288151092871508950F938E
:104630001F93DF93CF93CDB7DEB7AB970FB6F89448
:10464000DEBF0FBECDBF0E94F8220E94162688232F
:1046500011F48FEF4EC084EF94E261EA75E24DE809
:1046600053E22FE833E200E00E94D42190938815B2
:1046700080938715892B99F484EF94E261EA75E2BF
:104680004DE853E22FE833E20FEF0E94D4219093DC
:10469000881580938715892B11F48EEF2AC080919D
:1046A0008715909188150E94411F90938A158093D9
:1046B0008915009721F40E94F8228DEF1AC06AE351
:1046C00071E18E010F5F1F4FA8010E94112180919F
:1046D000891590918A15B8010E94191790938C152D
:1046E00080938B15892B11F080E003C00E94F82283
:1046F0008CEFAB960FB6F894DEBF0FBECDBFCF9157
:10470000DF911F910F91089580B1869586958695CA
:1047100080958170089581E0089580E0089580E09B
:10472000089580E00895DF92EF92FF920F931F9318
:10473000D82E7A018B010E94353A8D2D80640E941B
:10474000313A812F9927AA27BB270E94313AC80105
:10475000AA27BB270E94313ABB27A12F902F8F2D6C
:104760000E94313A8E2D0E94313ADD2011F08FEFF8
:1047700001C085E90E94313A10E00E94353A8F3F2E
:1047800019F41F5F1A30C9F71F910F91FF90EF9036
:10479000DF900895CF92DF92EF92FF920F931F93D5
:1047A000CF93DF938C01009709F414C1039912C1D0
:1047B00089E1F80111928A95E9F78091620084609D
:1047C000809362008AE040E050E060E070E00E9488
:1047D0009323882309F078C0C0E0D0E00E94353AE6
:1047E0008E3F31F02196FFE1CF3FDF07B9F76CC074
:1047F000D02EC801EC01E0E6EE2EF12C0E94353AF5
:10480000282FAE014D19483028F4433090F444234A
:1048100059F00DC04D3018F4493080F40CC04D30C3
:1048200031F14E3091F528C0F80120832EC0288345
:104830002CC029832AC0F801228727C030E040E03D
:1048400050E00E2C04C0220F331F441F551F0A9442
:10485000D2F7F80183859485A585B685822B932BA5
:10486000A42BB52B83879487A587B6870EC0229586
:10487000207FF801278709C0922F92959F70F80139
:104880008785892B87872F70208B219648EF5FEFD4
:10489000E40EF51E50EDE5165FEFF50609F0AECF1C
:1048A00089E040E050E060E070E00E9493238823BC
:1048B00059F4C0E0D0E00E94353A8E3F69F021966D
:1048C0008FE1CF3FD807B9F7809162008B7F80934B
:1048D00062000E94353A7EC0CC24EE24C0E0D0E0D5
:1048E000FF24DD24D3940E94353A98E0F91641F173
:1048F0009F1550F0E6E0FE16A9F0EF15C8F0F5E0C0
:10490000FF1609F059C00AC04AE0F41639F1F4164E
:1049100000F15EE0F51609F04FC039C07FE0C72E08
:10492000C8224AC090E083709070D82FCC2744C032
:1049300090E0C82BD92BCC0FDD1FCC0FDD1F3CC066
:10494000829586958695837090E0C82BD92B219609
:1049500033C043E0E42EE822EE0C2EC0881F8827E7
:10496000881FE82A9E0140E050E08C2D90E00296DE
:104970008E0D911D04C0220F331F441F551F8A95B1
:10498000D2F7F801218B328B438B548B15C090E00A
:1049900086FF02C0F801D58A85FF02C0F801D68AD9
:1049A00084FF02C0F801D78A8C7090709595879526
:1049B00095958795F801808FF394F2E1FF1609F041
:1049C00092CF809162008B7F809362000E94353A83
:1049D00081E001C080E0DF91CF911F910F91FF90A6
:1049E000EF90DF90CF9008952F923F924F925F9279
:1049F0006F927F928F929F92AF92BF92CF92DF92EF
:104A0000EF92FF920F931F93CF93DF933B014C01E3
:104A10005A0119017EC0C12CAEEFDA2EAFEFEA2E9B
:104A2000AFEFFA2EC620D720E820F920FFEF4F2E57
:104A3000F1E05F2E4620572000E012E0041915092E
:104A40002016310608F4810180918D1D90918E1DF4
:104A5000A0918F1DB091901DC816D906EA06FB06DD
:104A600009F444C08091620084608093620081E117
:104A7000B701A6010E949323882359F4C0E0D0E037
:104A80000E94353A8E3F71F021968FE1CF3FD807D3
:104A9000B9F7809162008B7F809362000E94353A63
:104AA00080E03CC08DE895E160E072E00E94463A0B
:104AB000C0928D1DD0928E1DE0928F1DF092901DA0
:104AC000920123573A4EC501B901A8010E94E7742B
:104AD000A00EB11E0E94353A0E94353A80916200C4
:104AE0008B7F809362000E94353A0AC0920123575F
:104AF0003A4EC501B901A8010E94E774A00EB11E8B
:104B0000201A310AC801A0E0B0E0680E791E8A1EA2
:104B10009B1E2114310409F07ECF81E0DF91CF91FB
:104B20001F910F91FF90EF90DF90CF90BF90AF90CB
:104B30009F908F907F906F905F904F903F902F90BD
:104B400008952F923F924F925F926F927F928F9231
:104B50009F92AF92BF92CF92DF92EF92FF920F930C
:104B60001F93DF93CF9300D000D0CDB7DEB74B01BA
:104B70005C013A013C832B831701DA82C98241151B
:104B80005105D1F121153105B9F102171307A0F133
:104B9000E114F10489F10E94553A4B805C805094F5
:104BA0004194510853942B813C81021B130B6901E2
:104BB000EE24FF24C501B401A3012B813C810E9496
:104BC000F4248823C9F0C301B501A40129813A81E5
:104BD000F1010995882391F0040D151D8B819C81AD
:104BE000800F911FEB81FC818E179F0738F08C0C92
:104BF0009D1CAE1CBF1CDECF80E001C081E00F9089
:104C00000F900F900F90CF91DF911F910F91FF9018
:104C1000EF90DF90CF90BF90AF909F908F907F905C
:104C20006F905F904F903F902F9008951F93CF9378
:104C3000DF9380916100877F809361000000809105
:104C40006100846080936100809162008B7F80931B
:104C50006200039929C080E49CE90197F1F70E9462
:104C6000513A10E00E94353A1F5F1032D9F7809117
:104C70006200846080936200C0E0D0E080E040E0A9
:104C800050E060E070E00E949323813089F081E081
:104C9000CF3FD80759F4809162008B7F80936200E8
:104CA0000E94353A0E94553A80E03DC02196E6CFF9
:104CB000C0E0D0E081E040E050E060E070E00E94C1
:104CC000932380FF06C08FE7CF3FD80721F32196BB
:104CD000F1CF80E140E052E060E070E00E94932379
:104CE0008823C9F6809162008B7F809362000E94C6
:104CF000353A0E94553A8FEF9FEFAFEFBFEF8093A9
:104D00008D1D90938E1DA0938F1DB093901D60E01C
:104D100070E080E090E04DE855E120E038E00E944E
:104D2000F424811181E0DF91CF911F910895CF92FA
:104D3000DF92EF92FF920F931F93DF93CF9300D0F8
:104D400000D000D0CDB7DEB77C01D62EC72E01E94A
:104D50001DE11CC0D8018C918823B1F0C8010796D1
:104D6000B70144E050E00E94DA74009769F48D2D99
:104D70009C2D9C01D901F801319686E001900D929D
:104D80008150E1F781E05CC0055F1F4FBDE10D3B45
:104D90001B0701F720E031E03093206B20931F6B5D
:104DA00088E090E09093226B8093216B86E0809363
:104DB000236B84E08093246B3093266B2093256BC8
:104DC0000E943D28A7E2BBE6FC0186E001900D921F
:104DD0008150E1F70E94F628FC0180819181A28137
:104DE000B38180932D6B90932E6BA0932F6BB09318
:104DF000306B81E39BE6FC0186E0DF011D928A9522
:104E0000E9F7F70180819181A281B3818093376BAB
:104E10009093386BA093396BB0933A6B8E010F5F10
:104E20001F4FC8016FEF70E046E050E00E9402752E
:104E3000C80166E078E04CE150E00E94402880E044
:104E400026960FB6F894DEBF0FBECDBFCF91DF918F
:104E50001F910F91FF90EF90DF90CF9008956F9288
:104E60007F928F929F92AF92BF92CF92DF92EF92FA
:104E7000FF920F931F93CF93DF938C016C317105D9
:104E800008F4C3C00E94F628BC01C801489644E05B
:104E900050E00E94DA74009709F0B7C0F8018081F1
:104EA00091818050914009F0B0C0F80182819381D6
:104EB000089709F0AAC08481863009F0A6C08581D0
:104EC000843009F0A2C0A680B780F0E0AF16F1E010
:104ED000BF0631F020E0A21622E0B20609F095C02C
:104EE00028E0622E712C600E711E9EE0892E912C9E
:104EF000800E911EEE24EA94FE2C81E9C82E8DE1ED
:104F0000D82EE60113C0CE010796B40144E050E06C
:104F10000E94DA74009779F0888190E08E159F05E1
:104F200010F0C70101C06E012B967C018DE1CD3BD5
:104F3000D80749F7E601DE011196F30186E00190FA
:104F40000D928150E1F7F80186859785A089B18996
:104F50008F839887A987BA878CE38883F0E0AF16A0
:104F6000F1E0BF0611F081E051C0F801808191812C
:104F70009093206B80931F6B828193819093226B1F
:104F80008093216B84818093236B85818093246B34
:104F900080E092E09093266B8093256B0E943D28E1
:104FA000A7E2BBE6FC0186E001900D928150E1F79B
:104FB0000E94F628FC0180819181A281B3818093B7
:104FC0002D6B90932E6BA0932F6BB093306BA1E35E
:104FD000BBE6F30186E001900D928150E1F7F80104
:104FE00086859785A089B1898093376B9093386BBC
:104FF000A093396BB0933A6B81E39BE666E078E06F
:105000004CE150E00E94402801C080E0DF91CF9148
:105010001F910F91FF90EF90DF90CF90BF90AF90D6
:105020009F908F907F906F9008958CE2E1E9FDE171
:10503000DF011D928A95E9F789E298E260E070E06D
:105040000E94161148E853E160E070E00E9474107D
:105050000895E1E9FDE106C02081222311F02150ED
:1050600020833B962DE1ED3BF207B1F748E853E191
:1050700060E070E00E94741008958DEB9DE108954A
:105080000F931F93CF93DF93FC01EA0185E04D3D21
:10509000580710F080E022C081E19BE6182F092F0D
:1050A000DC0186E001900D928150E1F7A7E1BBE6BB
:1050B000EDEBFDE186E001900D928150E1F7CB012F
:1050C0000E94EE2A90931E6B80931D6B2E96812F6B
:1050D000902FBE010E943351811181E0DF91CF9169
:1050E0001F910F91089587E295E66AEE75E00E94A0
:1050F000C650009711F480E00895BC016E507040D6
:1051000080913365909134658830910549F08850DD
:10511000964021F485E395E60E942F2781E00895CB
:1051200085E395E60E94472A81E008959C01EDEB16
:10513000FDE186E0DF011D928A95E9F72115310531
:1051400039F0DF01F90186E001900D928150E1F71D
:1051500008950895CF92DF92EF92FF920F931F93DD
:10516000CF93DF936C01EB01F42EE52E8A819B81B6
:105170000E94EE2A8C0180E090E0BE014F2D5E2D52
:1051800022E00E94CE2A809590950817190721F5F4
:105190008881883009F503E31BE6C801BE014F2D65
:1051A0005E2D0E94E7741092336B80E090E0B801AE
:1051B0004F2D5E2D22E00E94CE2A809590950E9470
:1051C000EE2A9093366B8093356BC60161E04F2DCC
:1051D0005E2D0E94892901C080E0DF91CF911F914F
:1051E0000F91FF90EF90DF90CF90089583EC9DE1B9
:1051F000089587EC9DE108958BEC9DE1089540E0D2
:1052000020E030E0F901E953F24E80818095F90108
:10521000ED53F24E9081892BF901E153F24E8083D8
:10522000482B2F5F3F4F2430310561F7442361F451
:105230008FEF9FEFAFEFBFEF8093CF1D9093D01D07
:10524000A093D11DB093D21D8FEC9DE10895FC0178
:105250001092CB1D1092CC1D1092CD1D1092CE1D20
:10526000009761F080819181A281B3818093CB1DF1
:105270009093CC1DA093CD1DB093CE1D0895FC013D
:105280008FEF9FEFAFEFBFEF8093C71D9093C81DC7
:10529000A093C91DB093CA1D309769F08081918198
:1052A000A281B3818093C71D9093C81DA093C91D8F
:1052B000B093CA1D08951092CA1D0895FC01109262
:1052C000C31D1092C41D1092C51D1092C61D0097DB
:1052D00061F080819181A281B3818093C31D9093FD
:1052E000C41DA093C51DB093C61D0895EF92FF92F3
:1052F0000F931F938B017A010E945E29C8010E94BF
:105300003F29C7010E9427291F910F91FF90EF901D
:105310000895BF92CF92DF92EF92FF920F931F9367
:10532000DF93CF9300D000D000D0CDB7DEB76C01B3
:10533000B62E7A01FC0180819181A281B3818F5FB9
:105340009F4FAF4FBF4F51F00E94FF28BC01C601D5
:1053500044E050E00E94DA74009749F4CE010196CF
:105360006FEF70E046E050E00E94027530C020E030
:1053700030E0F901ED53F24ED601A20FB31F808148
:105380009C918927F901E953F24E9081892339F4E0
:105390002F5F3F4F2430310561F7C6010FC0809168
:1053A000CC1D9091CB1D892B9091CD1D892B909177
:1053B000CE1D892B09F45BC08BEC9DE1BE016F5FB4
:1053C0007F4F0E949726882311F481E050C00FE19F
:1053D0001BE684E1F80111928A95E9F780911F6B31
:1053E000856480931F6B84E190E0E80EF91EC7018D
:1053F0000E94EE2A9093226B8093216B80E480932D
:10540000276BB092286B8091C31D9091C41DA09111
:10541000C51DB091C61D80932B6B90932C6BA093F0
:105420002D6BB0932E6BF60180819181A281B381A7
:1054300080932F6B9093306BA093316BB093326B52
:1054400080E090E0B80144E150E02AE00E94CE2ADA
:10545000809590950E94EE2A90932A6B8093296BF9
:10546000CE01019660E078E0A7010E9440282696D0
:105470000FB6F894DEBF0FBECDBFCF91DF911F9165
:105480000F91FF90EF90DF90CF90BF9008958F9293
:105490009F92AF92BF92CF92DF92EF92FF920F93C3
:1054A000CF93DF93EC014B010881802F82958F70A1
:1054B000843009F066C08A819B810E94EE2A6C01CB
:1054C0003E812F8135FD5DC0C9019F71892B09F097
:1054D00058C08A859B850E94EE2A5C01000F000F50
:1054E0000C73E02EFF2480E090E0BE01A7012AE0CB
:1054F0000E94CE2A80959095A816B90609F041C061
:105500008C149D04F0F1CE01409663EC7DE144E003
:1055100050E00E94DA74009761F088898F3F89F526
:1055200089898F3F71F58A898F3F59F58B898F3F24
:1055300041F58985863079F08131C1F0813009F5F6
:10554000BE016E0D7F1DCE18DF08CE010C96A601A0
:105550000E94AA2817C0BE016E0D7F1DCE18DF085D
:10556000CE010C96A6010E943D300CC0BE016E0D0E
:105570007F1DCE18DF08CE010C96A6010E94B1391E
:1055800001C080E0DF91CF910F91FF90EF90DF900D
:10559000CF90BF90AF909F908F900895DC01FB015A
:1055A00041155105C9F0CB01820F911D415050406A
:1055B000460F571F8E179F0731F00180A00D008006
:1055C000B01DA11DB11D3296E417F50798F321F423
:1055D0000080B00DA11DB11DCD0108959C01022ECA
:1055E000232F302DC90108959B01AC01022E252FD8
:1055F000502D032E342F402DB901CA010895893151
:105600009105D8F4FC0185E0EE0FFF1F8A95E1F7C4
:10561000ED52F24E8081823019F0873071F403C070
:1056200081E08083089588E08083818D882311F054
:1056300081E0089581E0818F089580E008958931A7
:10564000910578F4FC0195E0EE0FFF1F9A95E1F7C4
:10565000ED52F24E8081833021F484E0808381E03A
:10566000089580E00895009761F0835D9D4125E0F5
:10567000969587952A95E1F78931910510F49C015B
:1056800002C02FEF3FEFC90108958931910588F4D9
:10569000FC0135E0EE0FFF1F3A95E1F7ED52F24EB7
:1056A0008081873031F4868D978D0E942F369C0142
:1056B00002C02FEF3FEFC90108958931910588F4A9
:1056C000FC0145E0EE0FFF1F4A95E1F7ED52F24E67
:1056D0008081873031F4868D978D0E9421369C0120
:1056E00002C02FEF3FEFC90108958931910588F479
:1056F000FC0155E0EE0FFF1F5A95E1F7ED52F24E17
:105700008081882331F0868D978D0E9482359C019F
:1057100002C02FEF3FEFC90108958931910588F448
:10572000FC0165E0EE0FFF1F6A95E1F7ED52F24EC6
:105730008081882331F0868D978D0E9478359C0179
:1057400002C02FEF3FEFC90108958931910588F418
:10575000FC0175E0EE0FFF1F7A95E1F7ED52F24E76
:105760008081873031F4868D978D0E94B4359C01FD
:1057700002C020E030E0C90108958931910588F424
:10578000FC01A5E0EE0FFF1FAA95E1F7ED52F24EE6
:105790008081882331F0868D978D0E9472379C011D
:1057A00002C020E030E0C90108950F931F93CF930A
:1057B000DF938931910508F58C01B5E0000F111FC9
:1057C000BA95E1F70D52124EF80180818730A9F4A5
:1057D00077FF02C06FEF7FE7F801868D978D0E94FB
:1057E0009435EC01F801868D978D0E942136892B26
:1057F00031F081E0F801818F02C0CFEFDFEFCE0101
:10580000DF91CF911F910F91089589319105A8F4EF
:10581000FC0185E0EE0FFF1F8A95E1F7ED52F24E95
:105820008081882351F077FF02C06FEF7FE7868D7C
:10583000978D0E946F379C0102C02FEF3FEFC90187
:105840000895FC0189319105A0F495E0EE0FFF1F4A
:105850009A95E1F7ED52F24E8081882351F037FF9F
:1058600002C02FEF3FE7868D978D0E9402379C0183
:1058700002C02FEF3FEFC9010895CF93DF93EC01F2
:105880009A0140E050E00E94212C9C0197FD05C048
:10589000CE01B9010E94052C9C01C901DF91CF9175
:1058A00008950F931F93CF93DF938931910508F5E6
:1058B0008C0125E0000F111F2A95E1F70D52124EC1
:1058C000F80180818730A9F457FF02C04FEF5FE7EE
:1058D000F801868D978D0E94AB36EC01F801868D1C
:1058E000978D0E942136892B31F081E0F801818F5C
:1058F00002C0CFEFDFEFCE01DF91CF911F910F916B
:1059000008958F929F92AF92BF92CF92DF92EF92C3
:10591000FF920F931F93DF93CF93CDB7DEB7A0977E
:105920000FB6F894DEBF0FBECDBF4C016B01EE2465
:10593000FF245E010894A11CB11CC501B60140E220
:1059400050E00E94CB7488A1882319F000E210E097
:1059500009C0F50101900020E9F78F0101501040C6
:105960000A191B09C401B501A8010E94512C97FD19
:105970000BC0E80EF91E801791074CF0003211059C
:1059800031F4C80ED91ED9CFEE24EA94FE2CC701FB
:10599000A0960FB6F894DEBF0FBECDBFCF91DF91BA
:1059A0001F910F91FF90EF90DF90CF90BF90AF903D
:1059B0009F908F900895CF93DF938931910510F0D8
:1059C00080E011C0EC0135E0CC0FDD1F3A95E1F726
:1059D000CD52D24E39F08E8D9F8D0E946E35188239
:1059E0001F8E1E8E81E0DF91CF910895CF93DF93BC
:1059F000EC010097A9F08E8D9F8D0E946E35298154
:105A00003A8180E2FE0111928A95E9F741E04883EC
:105A10003A83298388E192E09E8B8D8B4B8F1D8E7C
:105A2000DF91CF9108950F931F93CF93DF938B0155
:105A30009C0189319105E8F461157105D1F0E3ED20
:105A4000FDE109C08081823028F087819085801730
:105A5000910779F0B09680E2E33FF80799F70FC01D
:105A6000CE010E94F62C82E0888318870F8381E0A4
:105A700001C080E0DF91CF911F910F910895E9015E
:105A800045E0CC0FDD1F4A95E1F7CD52D24E88811B
:105A9000813079F7E5CFE3EDFDE10CC0808188230B
:105AA00041F480E2DF011D928A95E9F781E080836D
:105AB00007C0B096B0E2E33FFB0781F7E0E0F0E01B
:105AC000CF010895CF93DF93EC01009771F00E940E
:105AD0004B2DFC01009749F081E08083D283C18384
